{
  "contractName": "SupplyChain",
  "abi": [
    {
      "anonymous": false,
      "inputs": [
        {
          "indexed": false,
          "internalType": "uint256",
          "name": "id",
          "type": "uint256"
        },
        {
          "indexed": false,
          "internalType": "string",
          "name": "name",
          "type": "string"
        },
        {
          "indexed": false,
          "internalType": "uint256",
          "name": "price",
          "type": "uint256"
        },
        {
          "indexed": false,
          "internalType": "address",
          "name": "owner",
          "type": "address"
        }
      ],
      "name": "ProductCreated",
      "type": "event"
    },
    {
      "anonymous": false,
      "inputs": [
        {
          "indexed": false,
          "internalType": "uint256",
          "name": "id",
          "type": "uint256"
        },
        {
          "indexed": false,
          "internalType": "address",
          "name": "newOwner",
          "type": "address"
        }
      ],
      "name": "ProductTransferred",
      "type": "event"
    },
    {
      "inputs": [],
      "name": "productCount",
      "outputs": [
        {
          "internalType": "uint256",
          "name": "",
          "type": "uint256"
        }
      ],
      "stateMutability": "view",
      "type": "function",
      "constant": true
    },
    {
      "inputs": [
        {
          "internalType": "uint256",
          "name": "",
          "type": "uint256"
        }
      ],
      "name": "products",
      "outputs": [
        {
          "internalType": "uint256",
          "name": "id",
          "type": "uint256"
        },
        {
          "internalType": "string",
          "name": "name",
          "type": "string"
        },
        {
          "internalType": "uint256",
          "name": "price",
          "type": "uint256"
        },
        {
          "internalType": "address",
          "name": "owner",
          "type": "address"
        },
        {
          "internalType": "bool",
          "name": "isDelivered",
          "type": "bool"
        }
      ],
      "stateMutability": "view",
      "type": "function",
      "constant": true
    },
    {
      "inputs": [
        {
          "internalType": "string",
          "name": "_name",
          "type": "string"
        },
        {
          "internalType": "uint256",
          "name": "_price",
          "type": "uint256"
        }
      ],
      "name": "addProduct",
      "outputs": [],
      "stateMutability": "nonpayable",
      "type": "function"
    },
    {
      "inputs": [
        {
          "internalType": "uint256",
          "name": "_productId",
          "type": "uint256"
        },
        {
          "internalType": "address",
          "name": "_newOwner",
          "type": "address"
        }
      ],
      "name": "transferProduct",
      "outputs": [],
      "stateMutability": "nonpayable",
      "type": "function"
    },
    {
      "inputs": [
        {
          "internalType": "uint256",
          "name": "_productId",
          "type": "uint256"
        }
      ],
      "name": "markDelivered",
      "outputs": [],
      "stateMutability": "nonpayable",
      "type": "function"
    }
  ],
  "bytecode": "0x6080604052600060015534801561001557600080fd5b50610d54806100256000396000f3fe608060405234801561001057600080fd5b50600436106100575760003560e01c80637acc0b201461005c578063b15247d914610090578063e0f6ef87146100ac578063e43059e5146100ca578063eb826a5f146100e6575b600080fd5b6100766004803603810190610071919061074f565b610102565b604051610087959493929190610a76565b60405180910390f35b6100aa60048036038101906100a591906106fb565b6101ed565b005b6100b461037c565b6040516100c191906109e6565b60405180910390f35b6100e460048036038101906100df9190610778565b610382565b005b61010060048036038101906100fb919061074f565b6104fd565b005b600060205280600052604060002060009150905080600001549080600101805461012b90610bd7565b80601f016020809104026020016040519081016040528092919081815260200182805461015790610bd7565b80156101a45780601f10610179576101008083540402835291602001916101a4565b820191906000526020600020905b81548152906001019060200180831161018757829003601f168201915b5050505050908060020154908060030160009054906101000a900473ffffffffffffffffffffffffffffffffffffffff16908060030160149054906101000a900460ff16905085565b60008111610230576040517f08c379a0000000000000000000000000000000000000000000000000000000008152600401610227906109a6565b60405180910390fd5b6001600081548092919061024390610c09565b91905055506040518060a0016040528060015481526020018381526020018281526020013373ffffffffffffffffffffffffffffffffffffffff1681526020016000151581525060008060015481526020019081526020016000206000820151816000015560208201518160010190805190602001906102c49291906105c6565b506040820151816002015560608201518160030160006101000a81548173ffffffffffffffffffffffffffffffffffffffff021916908373ffffffffffffffffffffffffffffffffffffffff16021790555060808201518160030160146101000a81548160ff0219169083151502179055509050507f2e87df3c8f53fb06266ed52023929f5fab9f24130224ef6538b665d9cac825306001548383336040516103709493929190610a2a565b60405180910390a15050565b60015481565b600080600084815260200190815260200160002090508060030160009054906101000a900473ffffffffffffffffffffffffffffffffffffffff1673ffffffffffffffffffffffffffffffffffffffff163373ffffffffffffffffffffffffffffffffffffffff161461042a576040517f08c379a000000000000000000000000000000000000000000000000000000000815260040161042190610966565b60405180910390fd5b8060030160149054906101000a900460ff161561047c576040517f08c379a0000000000000000000000000000000000000000000000000000000008152600401610473906109c6565b60405180910390fd5b818160030160006101000a81548173ffffffffffffffffffffffffffffffffffffffff021916908373ffffffffffffffffffffffffffffffffffffffff1602179055507fa071c6e1af53a60acd8a5b2e1db68b30800b74279783e2d4d3ddf7d371826c8983836040516104f0929190610a01565b60405180910390a1505050565b600080600083815260200190815260200160002090508060030160009054906101000a900473ffffffffffffffffffffffffffffffffffffffff1673ffffffffffffffffffffffffffffffffffffffff163373ffffffffffffffffffffffffffffffffffffffff16146105a5576040517f08c379a000000000000000000000000000000000000000000000000000000000815260040161059c90610986565b60405180910390fd5b60018160030160146101000a81548160ff0219169083151502179055505050565b8280546105d290610bd7565b90600052602060002090601f0160209004810192826105f4576000855561063b565b82601f1061060d57805160ff191683800117855561063b565b8280016001018555821561063b579182015b8281111561063a57825182559160200191906001019061061f565b5b509050610648919061064c565b5090565b5b8082111561066557600081600090555060010161064d565b5090565b600061067c61067784610b01565b610ad0565b90508281526020810184848401111561069457600080fd5b61069f848285610b95565b509392505050565b6000813590506106b681610cf0565b92915050565b600082601f8301126106cd57600080fd5b81356106dd848260208601610669565b91505092915050565b6000813590506106f581610d07565b92915050565b6000806040838503121561070e57600080fd5b600083013567ffffffffffffffff81111561072857600080fd5b610734858286016106bc565b9250506020610745858286016106e6565b9150509250929050565b60006020828403121561076157600080fd5b600061076f848285016106e6565b91505092915050565b6000806040838503121561078b57600080fd5b6000610799858286016106e6565b92505060206107aa858286016106a7565b9150509250929050565b6107bd81610b4d565b82525050565b6107cc81610b5f565b82525050565b60006107dd82610b31565b6107e78185610b3c565b93506107f7818560208601610ba4565b61080081610cdf565b840191505092915050565b6000610818602783610b3c565b91507f4f6e6c7920746865206f776e65722063616e207472616e73666572207468652060008301527f70726f64756374000000000000000000000000000000000000000000000000006020830152604082019050919050565b600061087e602783610b3c565b91507f4f6e6c7920746865206f776e65722063616e206d61726b20697420617320646560008301527f6c697665726564000000000000000000000000000000000000000000000000006020830152604082019050919050565b60006108e4601f83610b3c565b91507f5072696365206d7573742062652067726561746572207468616e207a65726f006000830152602082019050919050565b6000610924601983610b3c565b91507f50726f6475637420616c72656164792064656c697665726564000000000000006000830152602082019050919050565b61096081610b8b565b82525050565b6000602082019050818103600083015261097f8161080b565b9050919050565b6000602082019050818103600083015261099f81610871565b9050919050565b600060208201905081810360008301526109bf816108d7565b9050919050565b600060208201905081810360008301526109df81610917565b9050919050565b60006020820190506109fb6000830184610957565b92915050565b6000604082019050610a166000830185610957565b610a2360208301846107b4565b9392505050565b6000608082019050610a3f6000830187610957565b8181036020830152610a5181866107d2565b9050610a606040830185610957565b610a6d60608301846107b4565b95945050505050565b600060a082019050610a8b6000830188610957565b8181036020830152610a9d81876107d2565b9050610aac6040830186610957565b610ab960608301856107b4565b610ac660808301846107c3565b9695505050505050565b6000604051905081810181811067ffffffffffffffff82111715610af757610af6610cb0565b5b8060405250919050565b600067ffffffffffffffff821115610b1c57610b1b610cb0565b5b601f19601f8301169050602081019050919050565b600081519050919050565b600082825260208201905092915050565b6000610b5882610b6b565b9050919050565b60008115159050919050565b600073ffffffffffffffffffffffffffffffffffffffff82169050919050565b6000819050919050565b82818337600083830152505050565b60005b83811015610bc2578082015181840152602081019050610ba7565b83811115610bd1576000848401525b50505050565b60006002820490506001821680610bef57607f821691505b60208210811415610c0357610c02610c81565b5b50919050565b6000610c1482610b8b565b91507fffffffffffffffffffffffffffffffffffffffffffffffffffffffffffffffff821415610c4757610c46610c52565b5b600182019050919050565b7f4e487b7100000000000000000000000000000000000000000000000000000000600052601160045260246000fd5b7f4e487b7100000000000000000000000000000000000000000000000000000000600052602260045260246000fd5b7f4e487b7100000000000000000000000000000000000000000000000000000000600052604160045260246000fd5b6000601f19601f8301169050919050565b610cf981610b4d565b8114610d0457600080fd5b50565b610d1081610b8b565b8114610d1b57600080fd5b5056fea2646970667358221220eb2dd06b29d433353df1e1b3eae13392cfe45b33e8ada9335b7bdbafc17d9aa164736f6c63430008000033",
  "immutableReferences": {},
  "source": "// SPDX-License-Identifier: MIT\r\npragma solidity ^0.8.0;\r\n\r\ncontract SupplyChain {\r\n    struct Product {\r\n        uint id;\r\n        string name;\r\n        uint price;\r\n        address owner;\r\n        bool isDelivered;\r\n    }\r\n\r\n    mapping(uint => Product) public products; \r\n    uint public productCount = 0;\r\n\r\n    event ProductCreated(uint id, string name, uint price, address owner);\r\n    event ProductTransferred(uint id, address newOwner);\r\n\r\n\r\n    function addProduct(string memory _name, uint _price) public {\r\n        require(_price > 0, \"Price must be greater than zero\");\r\n        productCount++;\r\n        products[productCount] = Product(productCount, _name, _price, msg.sender, false);\r\n        emit ProductCreated(productCount, _name, _price, msg.sender);\r\n    }\r\n\r\n\r\n    function transferProduct(uint _productId, address _newOwner) public {\r\n        Product storage product = products[_productId];\r\n        require(msg.sender == product.owner, \"Only the owner can transfer the product\");\r\n        require(!product.isDelivered, \"Product already delivered\");\r\n        product.owner = _newOwner;\r\n        emit ProductTransferred(_productId, _newOwner);\r\n    }\r\n\r\n\r\n    function markDelivered(uint _productId) public {\r\n        Product storage product = products[_productId];\r\n        require(msg.sender == product.owner, \"Only the owner can mark it as delivered\");\r\n        product.isDelivered = true;\r\n    }\r\n}\r\n",
  "sourcePath": "C:\\Users\\HP\\OneDrive\\Desktop\\Blockchain Enabled E-Commerce Supply Chain Management System\\supply-chain-smart-contract\\contracts\\SupplyChain.sol",
  "compiler": {
    "name": "solc",
    "version": "0.8.0+commit.c7dfd78e.Emscripten.clang"
  },
  "schemaVersion": "3.4.16",
  "updatedAt": "2024-11-08T18:16:44.802Z",
  "networkType": "ethereum",
  "devdoc": {
    "kind": "dev",
    "methods": {},
    "version": 1
  },
  "userdoc": {
    "kind": "user",
    "methods": {},
    "version": 1
  }
}