{
  "contractName": "SupplyChain",
  "abi": [
    {
      "inputs": [],
      "stateMutability": "nonpayable",
      "type": "constructor"
    },
    {
      "anonymous": false,
      "inputs": [
        {
          "indexed": false,
          "internalType": "uint256",
          "name": "id",
          "type": "uint256"
        },
        {
          "indexed": false,
          "internalType": "string",
          "name": "newLocation",
          "type": "string"
        },
        {
          "indexed": false,
          "internalType": "uint256",
          "name": "timestamp",
          "type": "uint256"
        }
      ],
      "name": "LocationUpdated",
      "type": "event"
    },
    {
      "anonymous": false,
      "inputs": [
        {
          "indexed": false,
          "internalType": "uint256",
          "name": "id",
          "type": "uint256"
        },
        {
          "indexed": false,
          "internalType": "string",
          "name": "name",
          "type": "string"
        },
        {
          "indexed": false,
          "internalType": "uint256",
          "name": "price",
          "type": "uint256"
        },
        {
          "indexed": false,
          "internalType": "address",
          "name": "owner",
          "type": "address"
        },
        {
          "indexed": false,
          "internalType": "uint256",
          "name": "timestamp",
          "type": "uint256"
        }
      ],
      "name": "ProductCreated",
      "type": "event"
    },
    {
      "anonymous": false,
      "inputs": [
        {
          "indexed": false,
          "internalType": "uint256",
          "name": "id",
          "type": "uint256"
        },
        {
          "indexed": false,
          "internalType": "uint256",
          "name": "timestamp",
          "type": "uint256"
        }
      ],
      "name": "ProductDelivered",
      "type": "event"
    },
    {
      "anonymous": false,
      "inputs": [
        {
          "indexed": false,
          "internalType": "uint256",
          "name": "id",
          "type": "uint256"
        },
        {
          "indexed": false,
          "internalType": "address",
          "name": "newOwner",
          "type": "address"
        },
        {
          "indexed": false,
          "internalType": "uint256",
          "name": "timestamp",
          "type": "uint256"
        }
      ],
      "name": "ProductTransferred",
      "type": "event"
    },
    {
      "anonymous": false,
      "inputs": [
        {
          "indexed": true,
          "internalType": "bytes32",
          "name": "role",
          "type": "bytes32"
        },
        {
          "indexed": true,
          "internalType": "bytes32",
          "name": "previousAdminRole",
          "type": "bytes32"
        },
        {
          "indexed": true,
          "internalType": "bytes32",
          "name": "newAdminRole",
          "type": "bytes32"
        }
      ],
      "name": "RoleAdminChanged",
      "type": "event"
    },
    {
      "anonymous": false,
      "inputs": [
        {
          "indexed": true,
          "internalType": "bytes32",
          "name": "role",
          "type": "bytes32"
        },
        {
          "indexed": true,
          "internalType": "address",
          "name": "account",
          "type": "address"
        },
        {
          "indexed": true,
          "internalType": "address",
          "name": "sender",
          "type": "address"
        }
      ],
      "name": "RoleGranted",
      "type": "event"
    },
    {
      "anonymous": false,
      "inputs": [
        {
          "indexed": true,
          "internalType": "bytes32",
          "name": "role",
          "type": "bytes32"
        },
        {
          "indexed": true,
          "internalType": "address",
          "name": "account",
          "type": "address"
        },
        {
          "indexed": true,
          "internalType": "address",
          "name": "sender",
          "type": "address"
        }
      ],
      "name": "RoleRevoked",
      "type": "event"
    },
    {
      "anonymous": false,
      "inputs": [
        {
          "indexed": false,
          "internalType": "uint256",
          "name": "id",
          "type": "uint256"
        },
        {
          "indexed": false,
          "internalType": "string",
          "name": "newStatus",
          "type": "string"
        },
        {
          "indexed": false,
          "internalType": "uint256",
          "name": "timestamp",
          "type": "uint256"
        }
      ],
      "name": "StatusUpdated",
      "type": "event"
    },
    {
      "inputs": [],
      "name": "ADMIN_ROLE",
      "outputs": [
        {
          "internalType": "bytes32",
          "name": "",
          "type": "bytes32"
        }
      ],
      "stateMutability": "view",
      "type": "function",
      "constant": true
    },
    {
      "inputs": [],
      "name": "DEFAULT_ADMIN_ROLE",
      "outputs": [
        {
          "internalType": "bytes32",
          "name": "",
          "type": "bytes32"
        }
      ],
      "stateMutability": "view",
      "type": "function",
      "constant": true
    },
    {
      "inputs": [
        {
          "internalType": "bytes32",
          "name": "role",
          "type": "bytes32"
        }
      ],
      "name": "getRoleAdmin",
      "outputs": [
        {
          "internalType": "bytes32",
          "name": "",
          "type": "bytes32"
        }
      ],
      "stateMutability": "view",
      "type": "function",
      "constant": true
    },
    {
      "inputs": [
        {
          "internalType": "bytes32",
          "name": "role",
          "type": "bytes32"
        },
        {
          "internalType": "address",
          "name": "account",
          "type": "address"
        }
      ],
      "name": "grantRole",
      "outputs": [],
      "stateMutability": "nonpayable",
      "type": "function"
    },
    {
      "inputs": [
        {
          "internalType": "bytes32",
          "name": "role",
          "type": "bytes32"
        },
        {
          "internalType": "address",
          "name": "account",
          "type": "address"
        }
      ],
      "name": "hasRole",
      "outputs": [
        {
          "internalType": "bool",
          "name": "",
          "type": "bool"
        }
      ],
      "stateMutability": "view",
      "type": "function",
      "constant": true
    },
    {
      "inputs": [],
      "name": "productCount",
      "outputs": [
        {
          "internalType": "uint256",
          "name": "",
          "type": "uint256"
        }
      ],
      "stateMutability": "view",
      "type": "function",
      "constant": true
    },
    {
      "inputs": [
        {
          "internalType": "uint256",
          "name": "",
          "type": "uint256"
        }
      ],
      "name": "products",
      "outputs": [
        {
          "internalType": "uint256",
          "name": "id",
          "type": "uint256"
        },
        {
          "internalType": "string",
          "name": "name",
          "type": "string"
        },
        {
          "internalType": "uint256",
          "name": "price",
          "type": "uint256"
        },
        {
          "internalType": "address",
          "name": "owner",
          "type": "address"
        },
        {
          "internalType": "string",
          "name": "location",
          "type": "string"
        },
        {
          "internalType": "string",
          "name": "status",
          "type": "string"
        },
        {
          "internalType": "uint256",
          "name": "createdAt",
          "type": "uint256"
        },
        {
          "internalType": "uint256",
          "name": "transferredAt",
          "type": "uint256"
        },
        {
          "internalType": "uint256",
          "name": "deliveredAt",
          "type": "uint256"
        },
        {
          "internalType": "bool",
          "name": "isDelivered",
          "type": "bool"
        }
      ],
      "stateMutability": "view",
      "type": "function",
      "constant": true
    },
    {
      "inputs": [
        {
          "internalType": "bytes32",
          "name": "role",
          "type": "bytes32"
        },
        {
          "internalType": "address",
          "name": "account",
          "type": "address"
        }
      ],
      "name": "renounceRole",
      "outputs": [],
      "stateMutability": "nonpayable",
      "type": "function"
    },
    {
      "inputs": [
        {
          "internalType": "bytes32",
          "name": "role",
          "type": "bytes32"
        },
        {
          "internalType": "address",
          "name": "account",
          "type": "address"
        }
      ],
      "name": "revokeRole",
      "outputs": [],
      "stateMutability": "nonpayable",
      "type": "function"
    },
    {
      "inputs": [
        {
          "internalType": "bytes4",
          "name": "interfaceId",
          "type": "bytes4"
        }
      ],
      "name": "supportsInterface",
      "outputs": [
        {
          "internalType": "bool",
          "name": "",
          "type": "bool"
        }
      ],
      "stateMutability": "view",
      "type": "function",
      "constant": true
    },
    {
      "inputs": [
        {
          "internalType": "string",
          "name": "_name",
          "type": "string"
        },
        {
          "internalType": "uint256",
          "name": "_price",
          "type": "uint256"
        }
      ],
      "name": "addProduct",
      "outputs": [],
      "stateMutability": "nonpayable",
      "type": "function"
    },
    {
      "inputs": [
        {
          "internalType": "uint256",
          "name": "_productId",
          "type": "uint256"
        },
        {
          "internalType": "address",
          "name": "_newOwner",
          "type": "address"
        }
      ],
      "name": "transferProduct",
      "outputs": [],
      "stateMutability": "nonpayable",
      "type": "function"
    },
    {
      "inputs": [
        {
          "internalType": "uint256",
          "name": "_productId",
          "type": "uint256"
        }
      ],
      "name": "markDelivered",
      "outputs": [],
      "stateMutability": "nonpayable",
      "type": "function"
    },
    {
      "inputs": [
        {
          "internalType": "uint256",
          "name": "_productId",
          "type": "uint256"
        },
        {
          "internalType": "string",
          "name": "_newLocation",
          "type": "string"
        }
      ],
      "name": "updateLocation",
      "outputs": [],
      "stateMutability": "nonpayable",
      "type": "function"
    },
    {
      "inputs": [
        {
          "internalType": "uint256",
          "name": "_productId",
          "type": "uint256"
        },
        {
          "internalType": "string",
          "name": "_newStatus",
          "type": "string"
        }
      ],
      "name": "updateStatus",
      "outputs": [],
      "stateMutability": "nonpayable",
      "type": "function"
    },
    {
      "inputs": [
        {
          "internalType": "uint256",
          "name": "_productId",
          "type": "uint256"
        }
      ],
      "name": "getHistory",
      "outputs": [
        {
          "internalType": "string[]",
          "name": "",
          "type": "string[]"
        }
      ],
      "stateMutability": "view",
      "type": "function",
      "constant": true
    }
  ],
  "bytecode": "0x608060405260006002553480156200001657600080fd5b506200002c6000801b336200006460201b60201c565b6200005e7fa49807205ce4d355092ef5a8a18f56e8913cf4a201fbe287825b095693c21775336200006460201b60201c565b620001c7565b6200007682826200015560201b60201c565b6200015157600160008084815260200190815260200160002060000160008373ffffffffffffffffffffffffffffffffffffffff1673ffffffffffffffffffffffffffffffffffffffff16815260200190815260200160002060006101000a81548160ff021916908315150217905550620000f6620001bf60201b60201c565b73ffffffffffffffffffffffffffffffffffffffff168173ffffffffffffffffffffffffffffffffffffffff16837f2f8788117e7eff1d82e926ec794901d17c78024a50270940304540a733656f0d60405160405180910390a45b5050565b600080600084815260200190815260200160002060000160008373ffffffffffffffffffffffffffffffffffffffff1673ffffffffffffffffffffffffffffffffffffffff16815260200190815260200160002060009054906101000a900460ff16905092915050565b600033905090565b61324280620001d76000396000f3fe608060405234801561001057600080fd5b50600436106101005760003560e01c8063a217fddf11610097578063d547741f11610066578063d547741f146102c6578063e0f6ef87146102e2578063e43059e514610300578063eb826a5f1461031c57610100565b8063a217fddf14610240578063b15247d91461025e578063c8691b2a1461027a578063d1b34dd8146102aa57610100565b80634ec0c9e9116100d35780634ec0c9e91461019d57806375b238fc146101b95780637acc0b20146101d757806391d148541461021057610100565b806301ffc9a714610105578063248a9ca3146101355780632f2ff15d1461016557806336568abe14610181575b600080fd5b61011f600480360381019061011a9190612005565b610338565b60405161012c9190612839565b60405180910390f35b61014f600480360381019061014a9190611fa0565b6103b2565b60405161015c9190612854565b60405180910390f35b61017f600480360381019061017a9190611fc9565b6103d1565b005b61019b60048036038101906101969190611fc9565b6103f2565b005b6101b760048036038101906101b291906120e7565b610475565b005b6101c16105f2565b6040516101ce9190612854565b60405180910390f35b6101f160048036038101906101ec9190612082565b610616565b6040516102079a99989796959493929190612a01565b60405180910390f35b61022a60048036038101906102259190611fc9565b61082f565b6040516102379190612839565b60405180910390f35b610248610899565b6040516102559190612854565b60405180910390f35b6102786004803603810190610273919061202e565b6108a0565b005b610294600480360381019061028f9190612082565b610c91565b6040516102a19190612817565b60405180910390f35b6102c460048036038101906102bf91906120e7565b610d80565b005b6102e060048036038101906102db9190611fc9565b610f2c565b005b6102ea610f4d565b6040516102f79190612971565b60405180910390f35b61031a600480360381019061031591906120ab565b610f53565b005b61033660048036038101906103319190612082565b61115d565b005b60007f7965db0b000000000000000000000000000000000000000000000000000000007bffffffffffffffffffffffffffffffffffffffffffffffffffffffff1916827bffffffffffffffffffffffffffffffffffffffffffffffffffffffff191614806103ab57506103aa82611330565b5b9050919050565b6000806000838152602001908152602001600020600101549050919050565b6103da826103b2565b6103e38161139a565b6103ed83836113ae565b505050565b6103fa61148e565b73ffffffffffffffffffffffffffffffffffffffff168173ffffffffffffffffffffffffffffffffffffffff1614610467576040517f08c379a000000000000000000000000000000000000000000000000000000000815260040161045e90612951565b60405180910390fd5b6104718282611496565b5050565b813373ffffffffffffffffffffffffffffffffffffffff166001600083815260200190815260200160002060030160009054906101000a900473ffffffffffffffffffffffffffffffffffffffff1673ffffffffffffffffffffffffffffffffffffffff161461051a576040517f08c379a0000000000000000000000000000000000000000000000000000000008152600401610511906128d1565b60405180910390fd5b600060016000858152602001908152602001600020905082816004019080519060200190610549929190611d7d565b50806009018361055842611577565b604051602001610569929190612747565b6040516020818303038152906040529080600181540180825580915050600190039060005260206000200160009091909190915090805190602001906105b0929190611d7d565b507f08c1aa8a3ded74821ab8fe6981a7dd0f9ebb0c3fcef9196f34b9f4e9d0e4edcd8484426040516105e4939291906129c3565b60405180910390a150505050565b7fa49807205ce4d355092ef5a8a18f56e8913cf4a201fbe287825b095693c2177581565b600160205280600052604060002060009150905080600001549080600101805461063f9061305b565b80601f016020809104026020016040519081016040528092919081815260200182805461066b9061305b565b80156106b85780601f1061068d576101008083540402835291602001916106b8565b820191906000526020600020905b81548152906001019060200180831161069b57829003601f168201915b5050505050908060020154908060030160009054906101000a900473ffffffffffffffffffffffffffffffffffffffff16908060040180546106f99061305b565b80601f01602080910402602001604051908101604052809291908181526020018280546107259061305b565b80156107725780601f1061074757610100808354040283529160200191610772565b820191906000526020600020905b81548152906001019060200180831161075557829003601f168201915b5050505050908060050180546107879061305b565b80601f01602080910402602001604051908101604052809291908181526020018280546107b39061305b565b80156108005780601f106107d557610100808354040283529160200191610800565b820191906000526020600020905b8154815290600101906020018083116107e357829003601f168201915b50505050509080600601549080600701549080600801549080600a0160009054906101000a900460ff1690508a565b600080600084815260200190815260200160002060000160008373ffffffffffffffffffffffffffffffffffffffff1673ffffffffffffffffffffffffffffffffffffffff16815260200190815260200160002060009054906101000a900460ff16905092915050565b6000801b81565b6108ca7fa49807205ce4d355092ef5a8a18f56e8913cf4a201fbe287825b095693c217753361082f565b610909576040517f08c379a0000000000000000000000000000000000000000000000000000000008152600401610900906128f1565b60405180910390fd5b6000811161094c576040517f08c379a0000000000000000000000000000000000000000000000000000000008152600401610943906128b1565b60405180910390fd5b6002600081548092919061095f9061308d565b919050555060405180610160016040528060025481526020018381526020018281526020013373ffffffffffffffffffffffffffffffffffffffff1681526020016040518060400160405280601081526020017f496e697469616c204c6f636174696f6e0000000000000000000000000000000081525081526020016040518060400160405280600c81526020017f4d616e756661637475726564000000000000000000000000000000000000000081525081526020014281526020016000815260200160008152602001600067ffffffffffffffff811115610a6b577f4e487b7100000000000000000000000000000000000000000000000000000000600052604160045260246000fd5b604051908082528060200260200182016040528015610a9e57816020015b6060815260200190600190039081610a895790505b50815260200160001515815250600160006002548152602001908152602001600020600082015181600001556020820151816001019080519060200190610ae6929190611d7d565b506040820151816002015560608201518160030160006101000a81548173ffffffffffffffffffffffffffffffffffffffff021916908373ffffffffffffffffffffffffffffffffffffffff1602179055506080820151816004019080519060200190610b54929190611d7d565b5060a0820151816005019080519060200190610b71929190611d7d565b5060c0820151816006015560e082015181600701556101008201518160080155610120820151816009019080519060200190610bae929190611e03565b5061014082015181600a0160006101000a81548160ff021916908315150217905550905050600160006002548152602001908152602001600020600901610bf442611577565b604051602001610c049190612781565b604051602081830303815290604052908060018154018082558091505060019003906000526020600020016000909190919091509080519060200190610c4b929190611d7d565b507ff7e1c86948ba511ee8b6ca6747c4dc391e5f2579f120e790fe479c2300468f0660025483833342604051610c85959493929190612ab2565b60405180910390a15050565b606060016000838152602001908152602001600020600901805480602002602001604051908101604052809291908181526020016000905b82821015610d75578382906000526020600020018054610ce89061305b565b80601f0160208091040260200160405190810160405280929190818152602001828054610d149061305b565b8015610d615780601f10610d3657610100808354040283529160200191610d61565b820191906000526020600020905b815481529060010190602001808311610d4457829003601f168201915b505050505081526020019060010190610cc9565b505050509050919050565b610daa7fa49807205ce4d355092ef5a8a18f56e8913cf4a201fbe287825b095693c217753361082f565b80610e1657503373ffffffffffffffffffffffffffffffffffffffff166001600084815260200190815260200160002060030160009054906101000a900473ffffffffffffffffffffffffffffffffffffffff1673ffffffffffffffffffffffffffffffffffffffff16145b610e55576040517f08c379a0000000000000000000000000000000000000000000000000000000008152600401610e4c90612931565b60405180910390fd5b600060016000848152602001908152602001600020905081816005019080519060200190610e84929190611d7d565b508060090182610e9342611577565b604051602001610ea49291906127a3565b604051602081830303815290604052908060018154018082558091505060019003906000526020600020016000909190919091509080519060200190610eeb929190611d7d565b507f8f06a6a7dcdfa9dacca5f151d0d13cd9437b0faa08953456979391d13f4d346f838342604051610f1f939291906129c3565b60405180910390a1505050565b610f35826103b2565b610f3e8161139a565b610f488383611496565b505050565b60025481565b813373ffffffffffffffffffffffffffffffffffffffff166001600083815260200190815260200160002060030160009054906101000a900473ffffffffffffffffffffffffffffffffffffffff1673ffffffffffffffffffffffffffffffffffffffff1614610ff8576040517f08c379a0000000000000000000000000000000000000000000000000000000008152600401610fef906128d1565b60405180910390fd5b600060016000858152602001908152602001600020905080600a0160009054906101000a900460ff1615611061576040517f08c379a000000000000000000000000000000000000000000000000000000000815260040161105890612911565b60405180910390fd5b828160030160006101000a81548173ffffffffffffffffffffffffffffffffffffffff021916908373ffffffffffffffffffffffffffffffffffffffff160217905550428160070181905550806009016110ba8461174c565b6110c342611577565b6040516020016110d49291906126c9565b60405160208183030381529060405290806001815401808255809150506001900390600052602060002001600090919091909150908051906020019061111b929190611d7d565b507fad757ca43ebff3d5691f5cee236513ed066a0d5bd2aac8854363da617d40eb2584844260405161114f9392919061298c565b60405180910390a150505050565b803373ffffffffffffffffffffffffffffffffffffffff166001600083815260200190815260200160002060030160009054906101000a900473ffffffffffffffffffffffffffffffffffffffff1673ffffffffffffffffffffffffffffffffffffffff1614611202576040517f08c379a00000000000000000000000000000000000000000000000000000000081526004016111f9906128d1565b60405180910390fd5b6000600160008481526020019081526020016000209050600181600a0160006101000a81548160ff0219169083151502179055504281600801819055506040518060400160405280600981526020017f44656c697665726564000000000000000000000000000000000000000000000081525081600501908051906020019061128c929190611d7d565b508060090161129a42611577565b6040516020016112aa9190612725565b6040516020818303038152906040529080600181540180825580915050600190039060005260206000200160009091909190915090805190602001906112f1929190611d7d565b507f26b22e11bb82e495373f9064c9f1db3c19dd810594822900684274cfd7f7a9558342604051611323929190612b0c565b60405180910390a1505050565b60007f01ffc9a7000000000000000000000000000000000000000000000000000000007bffffffffffffffffffffffffffffffffffffffffffffffffffffffff1916827bffffffffffffffffffffffffffffffffffffffffffffffffffffffff1916149050919050565b6113ab816113a661148e565b6119a0565b50565b6113b8828261082f565b61148a57600160008084815260200190815260200160002060000160008373ffffffffffffffffffffffffffffffffffffffff1673ffffffffffffffffffffffffffffffffffffffff16815260200190815260200160002060006101000a81548160ff02191690831515021790555061142f61148e565b73ffffffffffffffffffffffffffffffffffffffff168173ffffffffffffffffffffffffffffffffffffffff16837f2f8788117e7eff1d82e926ec794901d17c78024a50270940304540a733656f0d60405160405180910390a45b5050565b600033905090565b6114a0828261082f565b1561157357600080600084815260200190815260200160002060000160008373ffffffffffffffffffffffffffffffffffffffff1673ffffffffffffffffffffffffffffffffffffffff16815260200190815260200160002060006101000a81548160ff02191690831515021790555061151861148e565b73ffffffffffffffffffffffffffffffffffffffff168173ffffffffffffffffffffffffffffffffffffffff16837ff6391f5c32d9c69d2a47ea670b442974b53935d1edc7fd64eb21e047a839171b60405160405180910390a45b5050565b606060008214156115bf576040518060400160405280600181526020017f30000000000000000000000000000000000000000000000000000000000000008152509050611747565b600082905060005b600082146115f15780806115da9061308d565b915050600a826115ea9190612c94565b91506115c7565b60008167ffffffffffffffff811115611633577f4e487b7100000000000000000000000000000000000000000000000000000000600052604160045260246000fd5b6040519080825280601f01601f1916602001820160405280156116655781602001600182028036833780820191505090505b50905060008290505b6000861461173f576001816116839190612efc565b90506000600a80886116959190612c94565b61169f9190612e67565b876116aa9190612efc565b60306116b69190612c5d565b905060008160f81b9050808484815181106116fa577f4e487b7100000000000000000000000000000000000000000000000000000000600052603260045260246000fd5b60200101907effffffffffffffffffffffffffffffffffffffffffffffffffffffffffffff1916908160001a905350600a886117369190612c94565b9750505061166e565b819450505050505b919050565b60606000602867ffffffffffffffff811115611791577f4e487b7100000000000000000000000000000000000000000000000000000000600052604160045260246000fd5b6040519080825280601f01601f1916602001820160405280156117c35781602001600182028036833780820191505090505b50905060005b60148110156119775760008160136117e19190612efc565b60086117ed9190612e67565b60026117f99190612d49565b8573ffffffffffffffffffffffffffffffffffffffff1661181a9190612c94565b60f81b9050600060108260f81c6118319190612cc5565b60f81b905060008160f81c60106118489190612ec1565b8360f81c6118569190612f30565b60f81b905061186482611a3d565b858560026118729190612e67565b815181106118a9577f4e487b7100000000000000000000000000000000000000000000000000000000600052603260045260246000fd5b60200101907effffffffffffffffffffffffffffffffffffffffffffffffffffffffffffff1916908160001a9053506118e181611a3d565b8560018660026118f19190612e67565b6118fb9190612c07565b81518110611932577f4e487b7100000000000000000000000000000000000000000000000000000000600052603260045260246000fd5b60200101907effffffffffffffffffffffffffffffffffffffffffffffffffffffffffffff1916908160001a905350505050808061196f9061308d565b9150506117c9565b50806040516020016119899190612703565b604051602081830303815290604052915050919050565b6119aa828261082f565b611a39576119cf8173ffffffffffffffffffffffffffffffffffffffff166014611a83565b6119dd8360001c6020611a83565b6040516020016119ee9291906127dd565b6040516020818303038152906040526040517f08c379a0000000000000000000000000000000000000000000000000000000008152600401611a30919061286f565b60405180910390fd5b5050565b6000600a8260f81c60ff161015611a685760308260f81c611a5e9190612c5d565b60f81b9050611a7e565b60578260f81c611a789190612c5d565b60f81b90505b919050565b606060006002836002611a969190612e67565b611aa09190612c07565b67ffffffffffffffff811115611adf577f4e487b7100000000000000000000000000000000000000000000000000000000600052604160045260246000fd5b6040519080825280601f01601f191660200182016040528015611b115781602001600182028036833780820191505090505b5090507f300000000000000000000000000000000000000000000000000000000000000081600081518110611b6f577f4e487b7100000000000000000000000000000000000000000000000000000000600052603260045260246000fd5b60200101907effffffffffffffffffffffffffffffffffffffffffffffffffffffffffffff1916908160001a9053507f780000000000000000000000000000000000000000000000000000000000000081600181518110611bf9577f4e487b7100000000000000000000000000000000000000000000000000000000600052603260045260246000fd5b60200101907effffffffffffffffffffffffffffffffffffffffffffffffffffffffffffff1916908160001a90535060006001846002611c399190612e67565b611c439190612c07565b90505b6001811115611d2f577f3031323334353637383961626364656600000000000000000000000000000000600f861660108110611cab577f4e487b7100000000000000000000000000000000000000000000000000000000600052603260045260246000fd5b1a60f81b828281518110611ce8577f4e487b7100000000000000000000000000000000000000000000000000000000600052603260045260246000fd5b60200101907effffffffffffffffffffffffffffffffffffffffffffffffffffffffffffff1916908160001a905350600485901c945080611d2890613031565b9050611c46565b5060008414611d73576040517f08c379a0000000000000000000000000000000000000000000000000000000008152600401611d6a90612891565b60405180910390fd5b8091505092915050565b828054611d899061305b565b90600052602060002090601f016020900481019282611dab5760008555611df2565b82601f10611dc457805160ff1916838001178555611df2565b82800160010185558215611df2579182015b82811115611df1578251825591602001919060010190611dd6565b5b509050611dff9190611e63565b5090565b828054828255906000526020600020908101928215611e52579160200282015b82811115611e51578251829080519060200190611e41929190611d7d565b5091602001919060010190611e23565b5b509050611e5f9190611e80565b5090565b5b80821115611e7c576000816000905550600101611e64565b5090565b5b80821115611ea05760008181611e979190611ea4565b50600101611e81565b5090565b508054611eb09061305b565b6000825580601f10611ec25750611ee1565b601f016020900490600052602060002090810190611ee09190611e63565b5b50565b6000611ef7611ef284612b66565b612b35565b905082815260208101848484011115611f0f57600080fd5b611f1a848285612fef565b509392505050565b600081359050611f31816131b0565b92915050565b600081359050611f46816131c7565b92915050565b600081359050611f5b816131de565b92915050565b600082601f830112611f7257600080fd5b8135611f82848260208601611ee4565b91505092915050565b600081359050611f9a816131f5565b92915050565b600060208284031215611fb257600080fd5b6000611fc084828501611f37565b91505092915050565b60008060408385031215611fdc57600080fd5b6000611fea85828601611f37565b9250506020611ffb85828601611f22565b9150509250929050565b60006020828403121561201757600080fd5b600061202584828501611f4c565b91505092915050565b6000806040838503121561204157600080fd5b600083013567ffffffffffffffff81111561205b57600080fd5b61206785828601611f61565b925050602061207885828601611f8b565b9150509250929050565b60006020828403121561209457600080fd5b60006120a284828501611f8b565b91505092915050565b600080604083850312156120be57600080fd5b60006120cc85828601611f8b565b92505060206120dd85828601611f22565b9150509250929050565b600080604083850312156120fa57600080fd5b600061210885828601611f8b565b925050602083013567ffffffffffffffff81111561212557600080fd5b61213185828601611f61565b9150509250929050565b600061214783836121f1565b905092915050565b61215881612f64565b82525050565b600061216982612ba6565b6121738185612bc9565b93508360208202850161218585612b96565b8060005b858110156121c157848403895281516121a2858261213b565b94506121ad83612bbc565b925060208a01995050600181019050612189565b50829750879550505050505092915050565b6121dc81612f76565b82525050565b6121eb81612f82565b82525050565b60006121fc82612bb1565b6122068185612bda565b9350612216818560208601612ffe565b61221f81613192565b840191505092915050565b600061223582612bb1565b61223f8185612beb565b935061224f818560208601612ffe565b61225881613192565b840191505092915050565b600061226e82612bb1565b6122788185612bfc565b9350612288818560208601612ffe565b80840191505092915050565b60006122a1602083612beb565b91507f537472696e67733a20686578206c656e67746820696e73756666696369656e746000830152602082019050919050565b60006122e1601f83612beb565b91507f5072696365206d7573742062652067726561746572207468616e207a65726f006000830152602082019050919050565b6000612321601a83612bfc565b91507f4f776e657273686970207472616e7366657272656420746f3a200000000000006000830152601a82019050919050565b6000612361600283612bfc565b91507f30780000000000000000000000000000000000000000000000000000000000006000830152600282019050919050565b60006123a1601683612bfc565b91507f50726f647563742064656c6976657265642061743a20000000000000000000006000830152601682019050919050565b60006123e1601b83612beb565b91507f5265737472696374656420746f2070726f64756374206f776e657200000000006000830152602082019050919050565b6000612421601583612bfc565b91507f4c6f636174696f6e207570646174656420746f3a2000000000000000000000006000830152601582019050919050565b6000612461600583612bfc565b91507f2061743a200000000000000000000000000000000000000000000000000000006000830152600582019050919050565b60006124a1601483612bfc565b91507f50726f6475637420637265617465642061743a200000000000000000000000006000830152601482019050919050565b60006124e1601483612beb565b91507f5265737472696374656420746f2061646d696e730000000000000000000000006000830152602082019050919050565b6000612521601983612beb565b91507f50726f6475637420616c72656164792064656c697665726564000000000000006000830152602082019050919050565b6000612561601383612bfc565b91507f537461747573207570646174656420746f3a20000000000000000000000000006000830152601382019050919050565b60006125a1601d83612beb565b91507f556e617574686f72697a656420746f20757064617465207374617475730000006000830152602082019050919050565b60006125e1601783612bfc565b91507f416363657373436f6e74726f6c3a206163636f756e74200000000000000000006000830152601782019050919050565b6000612621601183612bfc565b91507f206973206d697373696e6720726f6c65200000000000000000000000000000006000830152601182019050919050565b6000612661602f83612beb565b91507f416363657373436f6e74726f6c3a2063616e206f6e6c792072656e6f756e636560008301527f20726f6c657320666f722073656c6600000000000000000000000000000000006020830152604082019050919050565b6126c381612fd8565b82525050565b60006126d482612314565b91506126e08285612263565b91506126eb82612454565b91506126f78284612263565b91508190509392505050565b600061270e82612354565b915061271a8284612263565b915081905092915050565b600061273082612394565b915061273c8284612263565b915081905092915050565b600061275282612414565b915061275e8285612263565b915061276982612454565b91506127758284612263565b91508190509392505050565b600061278c82612494565b91506127988284612263565b915081905092915050565b60006127ae82612554565b91506127ba8285612263565b91506127c582612454565b91506127d18284612263565b91508190509392505050565b60006127e8826125d4565b91506127f48285612263565b91506127ff82612614565b915061280b8284612263565b91508190509392505050565b60006020820190508181036000830152612831818461215e565b905092915050565b600060208201905061284e60008301846121d3565b92915050565b600060208201905061286960008301846121e2565b92915050565b60006020820190508181036000830152612889818461222a565b905092915050565b600060208201905081810360008301526128aa81612294565b9050919050565b600060208201905081810360008301526128ca816122d4565b9050919050565b600060208201905081810360008301526128ea816123d4565b9050919050565b6000602082019050818103600083015261290a816124d4565b9050919050565b6000602082019050818103600083015261292a81612514565b9050919050565b6000602082019050818103600083015261294a81612594565b9050919050565b6000602082019050818103600083015261296a81612654565b9050919050565b600060208201905061298660008301846126ba565b92915050565b60006060820190506129a160008301866126ba565b6129ae602083018561214f565b6129bb60408301846126ba565b949350505050565b60006060820190506129d860008301866126ba565b81810360208301526129ea818561222a565b90506129f960408301846126ba565b949350505050565b600061014082019050612a17600083018d6126ba565b8181036020830152612a29818c61222a565b9050612a38604083018b6126ba565b612a45606083018a61214f565b8181036080830152612a57818961222a565b905081810360a0830152612a6b818861222a565b9050612a7a60c08301876126ba565b612a8760e08301866126ba565b612a956101008301856126ba565b612aa36101208301846121d3565b9b9a5050505050505050505050565b600060a082019050612ac760008301886126ba565b8181036020830152612ad9818761222a565b9050612ae860408301866126ba565b612af5606083018561214f565b612b0260808301846126ba565b9695505050505050565b6000604082019050612b2160008301856126ba565b612b2e60208301846126ba565b9392505050565b6000604051905081810181811067ffffffffffffffff82111715612b5c57612b5b613163565b5b8060405250919050565b600067ffffffffffffffff821115612b8157612b80613163565b5b601f19601f8301169050602081019050919050565b6000819050602082019050919050565b600081519050919050565b600081519050919050565b6000602082019050919050565b600082825260208201905092915050565b600082825260208201905092915050565b600082825260208201905092915050565b600081905092915050565b6000612c1282612fd8565b9150612c1d83612fd8565b9250827fffffffffffffffffffffffffffffffffffffffffffffffffffffffffffffffff03821115612c5257612c516130d6565b5b828201905092915050565b6000612c6882612fe2565b9150612c7383612fe2565b92508260ff03821115612c8957612c886130d6565b5b828201905092915050565b6000612c9f82612fd8565b9150612caa83612fd8565b925082612cba57612cb9613105565b5b828204905092915050565b6000612cd082612fe2565b9150612cdb83612fe2565b925082612ceb57612cea613105565b5b828204905092915050565b6000808291508390505b6001851115612d4057808604811115612d1c57612d1b6130d6565b5b6001851615612d2b5780820291505b8081029050612d39856131a3565b9450612d00565b94509492505050565b6000612d5482612fd8565b9150612d5f83612fd8565b9250612d8c7fffffffffffffffffffffffffffffffffffffffffffffffffffffffffffffffff8484612d94565b905092915050565b600082612da45760019050612e60565b81612db25760009050612e60565b8160018114612dc85760028114612dd257612e01565b6001915050612e60565b60ff841115612de457612de36130d6565b5b8360020a915084821115612dfb57612dfa6130d6565b5b50612e60565b5060208310610133831016604e8410600b8410161715612e365782820a905083811115612e3157612e306130d6565b5b612e60565b612e438484846001612cf6565b92509050818404811115612e5a57612e596130d6565b5b81810290505b9392505050565b6000612e7282612fd8565b9150612e7d83612fd8565b9250817fffffffffffffffffffffffffffffffffffffffffffffffffffffffffffffffff0483118215151615612eb657612eb56130d6565b5b828202905092915050565b6000612ecc82612fe2565b9150612ed783612fe2565b92508160ff0483118215151615612ef157612ef06130d6565b5b828202905092915050565b6000612f0782612fd8565b9150612f1283612fd8565b925082821015612f2557612f246130d6565b5b828203905092915050565b6000612f3b82612fe2565b9150612f4683612fe2565b925082821015612f5957612f586130d6565b5b828203905092915050565b6000612f6f82612fb8565b9050919050565b60008115159050919050565b6000819050919050565b60007fffffffff0000000000000000000000000000000000000000000000000000000082169050919050565b600073ffffffffffffffffffffffffffffffffffffffff82169050919050565b6000819050919050565b600060ff82169050919050565b82818337600083830152505050565b60005b8381101561301c578082015181840152602081019050613001565b8381111561302b576000848401525b50505050565b600061303c82612fd8565b915060008214156130505761304f6130d6565b5b600182039050919050565b6000600282049050600182168061307357607f821691505b6020821081141561308757613086613134565b5b50919050565b600061309882612fd8565b91507fffffffffffffffffffffffffffffffffffffffffffffffffffffffffffffffff8214156130cb576130ca6130d6565b5b600182019050919050565b7f4e487b7100000000000000000000000000000000000000000000000000000000600052601160045260246000fd5b7f4e487b7100000000000000000000000000000000000000000000000000000000600052601260045260246000fd5b7f4e487b7100000000000000000000000000000000000000000000000000000000600052602260045260246000fd5b7f4e487b7100000000000000000000000000000000000000000000000000000000600052604160045260246000fd5b6000601f19601f8301169050919050565b60008160011c9050919050565b6131b981612f64565b81146131c457600080fd5b50565b6131d081612f82565b81146131db57600080fd5b50565b6131e781612f8c565b81146131f257600080fd5b50565b6131fe81612fd8565b811461320957600080fd5b5056fea2646970667358221220fe7e0960fc0e1d4297a18f89dff7c9f8f16769cc77ab132a0f4a942c713d2aca64736f6c63430008000033",
  "immutableReferences": {},
  "source": "// SPDX-License-Identifier: MIT\r\npragma solidity ^0.8.0;\r\n\r\nimport \"@openzeppelin/contracts/access/AccessControl.sol\";\r\n\r\ncontract SupplyChain is AccessControl {\r\n    struct Product {\r\n        uint256 id;\r\n        string name;\r\n        uint256 price;\r\n        address owner;\r\n        string location;\r\n        string status;\r\n        uint256 createdAt;\r\n        uint256 transferredAt;\r\n        uint256 deliveredAt;\r\n        string[] history;\r\n        bool isDelivered;\r\n    }\r\n\r\n    // Roles\r\n    bytes32 public constant ADMIN_ROLE = keccak256(\"ADMIN_ROLE\");\r\n\r\n    mapping(uint256 => Product) public products;\r\n    uint256 public productCount = 0;\r\n\r\n    event ProductCreated(uint256 id, string name, uint256 price, address owner, uint256 timestamp);\r\n    event ProductTransferred(uint256 id, address newOwner, uint256 timestamp);\r\n    event ProductDelivered(uint256 id, uint256 timestamp);\r\n    event LocationUpdated(uint256 id, string newLocation, uint256 timestamp);\r\n    event StatusUpdated(uint256 id, string newStatus, uint256 timestamp);\r\n\r\n    constructor() {\r\n        // Grant the deployer the default admin role\r\n        _grantRole(DEFAULT_ADMIN_ROLE, msg.sender);\r\n        _grantRole(ADMIN_ROLE, msg.sender);\r\n    }\r\n\r\n    // Modifier to restrict function to only admins\r\n    modifier onlyAdmin() {\r\n        require(hasRole(ADMIN_ROLE, msg.sender), \"Restricted to admins\");\r\n        _;\r\n    }\r\n\r\n    // Modifier to restrict function to only owners\r\n    modifier onlyOwner(uint256 productId) {\r\n        require(products[productId].owner == msg.sender, \"Restricted to product owner\");\r\n        _;\r\n    }\r\n\r\n    // Add Product (Admin only)\r\n    function addProduct(string memory _name, uint256 _price) public onlyAdmin {\r\n        require(_price > 0, \"Price must be greater than zero\");\r\n        productCount++;\r\n        products[productCount] = Product({\r\n            id: productCount,\r\n            name: _name,\r\n            price: _price,\r\n            owner: msg.sender,\r\n            location: \"Initial Location\",\r\n            status: \"Manufactured\",\r\n            createdAt: block.timestamp,\r\n            transferredAt: 0,\r\n            deliveredAt: 0,\r\n            history: new string[](0),\r\n            isDelivered: false\r\n        });\r\n        products[productCount].history.push(string(abi.encodePacked(\"Product created at: \", uint2str(block.timestamp))));\r\n        emit ProductCreated(productCount, _name, _price, msg.sender, block.timestamp);\r\n    }\r\n\r\n    // Transfer Product (Only the owner of the product)\r\n    function transferProduct(uint256 _productId, address _newOwner) public onlyOwner(_productId) {\r\n        Product storage product = products[_productId];\r\n        require(!product.isDelivered, \"Product already delivered\");\r\n        product.owner = _newOwner;\r\n        product.transferredAt = block.timestamp;\r\n        product.history.push(string(abi.encodePacked(\"Ownership transferred to: \", toAsciiString(_newOwner), \" at: \", uint2str(block.timestamp))));\r\n        emit ProductTransferred(_productId, _newOwner, block.timestamp);\r\n    }\r\n\r\n    // Mark as Delivered (Only the owner of the product)\r\n    function markDelivered(uint256 _productId) public onlyOwner(_productId) {\r\n        Product storage product = products[_productId];\r\n        product.isDelivered = true;\r\n        product.deliveredAt = block.timestamp;\r\n        product.status = \"Delivered\";\r\n        product.history.push(string(abi.encodePacked(\"Product delivered at: \", uint2str(block.timestamp))));\r\n        emit ProductDelivered(_productId, block.timestamp);\r\n    }\r\n\r\n    // Update Location (Only the owner of the product)\r\n    function updateLocation(uint256 _productId, string memory _newLocation) public onlyOwner(_productId) {\r\n        Product storage product = products[_productId];\r\n        product.location = _newLocation;\r\n        product.history.push(string(abi.encodePacked(\"Location updated to: \", _newLocation, \" at: \", uint2str(block.timestamp))));\r\n        emit LocationUpdated(_productId, _newLocation, block.timestamp);\r\n    }\r\n\r\n    // Update Status (Admin or owner only)\r\n    function updateStatus(uint256 _productId, string memory _newStatus) public {\r\n        require(\r\n            hasRole(ADMIN_ROLE, msg.sender) || products[_productId].owner == msg.sender,\r\n            \"Unauthorized to update status\"\r\n        );\r\n        Product storage product = products[_productId];\r\n        product.status = _newStatus;\r\n        product.history.push(string(abi.encodePacked(\"Status updated to: \", _newStatus, \" at: \", uint2str(block.timestamp))));\r\n        emit StatusUpdated(_productId, _newStatus, block.timestamp);\r\n    }\r\n\r\n    // View Product History\r\n    function getHistory(uint256 _productId) public view returns (string[] memory) {\r\n        return products[_productId].history;\r\n    }\r\n\r\n    // Utility: Convert uint to string\r\n    function uint2str(uint256 _i) internal pure returns (string memory _uintAsString) {\r\n        if (_i == 0) {\r\n            return \"0\";\r\n        }\r\n        uint256 j = _i;\r\n        uint256 len;\r\n        while (j != 0) {\r\n            len++;\r\n            j /= 10;\r\n        }\r\n        bytes memory bstr = new bytes(len);\r\n        uint256 k = len;\r\n        while (_i != 0) {\r\n            k = k - 1;\r\n            uint8 temp = (48 + uint8(_i - _i / 10 * 10));\r\n            bytes1 b1 = bytes1(temp);\r\n            bstr[k] = b1;\r\n            _i /= 10;\r\n        }\r\n        return string(bstr);\r\n    }\r\n\r\n    // Utility: Convert address to string\r\n    function toAsciiString(address x) internal pure returns (string memory) {\r\n        bytes memory s = new bytes(40);\r\n        for (uint256 i = 0; i < 20; i++) {\r\n            bytes1 b = bytes1(uint8(uint256(uint160(x)) / (2**(8 * (19 - i)))));\r\n            bytes1 hi = bytes1(uint8(b) / 16);\r\n            bytes1 lo = bytes1(uint8(b) - 16 * uint8(hi));\r\n            s[2 * i] = char(hi);\r\n            s[2 * i + 1] = char(lo);\r\n        }\r\n        return string(abi.encodePacked(\"0x\", string(s)));\r\n    }\r\n\r\n    function char(bytes1 b) internal pure returns (bytes1 c) {\r\n        if (uint8(b) < 10) return bytes1(uint8(b) + 0x30);\r\n        else return bytes1(uint8(b) + 0x57);\r\n    }\r\n}\r\n",
  "sourcePath": "C:\\Users\\HP\\OneDrive\\Desktop\\Blockchain Enabled E-Commerce Supply Chain Management System\\supply-chain-smart-contract\\contracts\\SupplyChain.sol",
  "compiler": {
    "name": "solc",
    "version": "0.8.0+commit.c7dfd78e.Emscripten.clang"
  },
  "schemaVersion": "3.4.16",
  "updatedAt": "2024-11-26T12:39:39.721Z",
  "networkType": "ethereum",
  "devdoc": {
    "kind": "dev",
    "methods": {
      "getRoleAdmin(bytes32)": {
        "details": "Returns the admin role that controls `role`. See {grantRole} and {revokeRole}. To change a role's admin, use {_setRoleAdmin}."
      },
      "grantRole(bytes32,address)": {
        "details": "Grants `role` to `account`. If `account` had not been already granted `role`, emits a {RoleGranted} event. Requirements: - the caller must have ``role``'s admin role. May emit a {RoleGranted} event."
      },
      "hasRole(bytes32,address)": {
        "details": "Returns `true` if `account` has been granted `role`."
      },
      "renounceRole(bytes32,address)": {
        "details": "Revokes `role` from the calling account. Roles are often managed via {grantRole} and {revokeRole}: this function's purpose is to provide a mechanism for accounts to lose their privileges if they are compromised (such as when a trusted device is misplaced). If the calling account had been revoked `role`, emits a {RoleRevoked} event. Requirements: - the caller must be `account`. May emit a {RoleRevoked} event."
      },
      "revokeRole(bytes32,address)": {
        "details": "Revokes `role` from `account`. If `account` had been granted `role`, emits a {RoleRevoked} event. Requirements: - the caller must have ``role``'s admin role. May emit a {RoleRevoked} event."
      },
      "supportsInterface(bytes4)": {
        "details": "See {IERC165-supportsInterface}."
      }
    },
    "version": 1
  },
  "userdoc": {
    "kind": "user",
    "methods": {},
    "version": 1
  }
}