{
  "contractName": "SupplyChain",
  "abi": [
    {
      "inputs": [],
      "stateMutability": "nonpayable",
      "type": "constructor"
    },
    {
      "anonymous": false,
      "inputs": [
        {
          "indexed": false,
          "internalType": "uint256",
          "name": "id",
          "type": "uint256"
        },
        {
          "indexed": false,
          "internalType": "string",
          "name": "newLocation",
          "type": "string"
        },
        {
          "indexed": false,
          "internalType": "uint256",
          "name": "timestamp",
          "type": "uint256"
        }
      ],
      "name": "LocationUpdated",
      "type": "event"
    },
    {
      "anonymous": false,
      "inputs": [
        {
          "indexed": false,
          "internalType": "uint256",
          "name": "id",
          "type": "uint256"
        },
        {
          "indexed": false,
          "internalType": "string",
          "name": "name",
          "type": "string"
        },
        {
          "indexed": false,
          "internalType": "uint256",
          "name": "price",
          "type": "uint256"
        },
        {
          "indexed": false,
          "internalType": "uint256",
          "name": "stock",
          "type": "uint256"
        },
        {
          "indexed": false,
          "internalType": "address",
          "name": "owner",
          "type": "address"
        },
        {
          "indexed": false,
          "internalType": "uint256",
          "name": "timestamp",
          "type": "uint256"
        }
      ],
      "name": "ProductCreated",
      "type": "event"
    },
    {
      "anonymous": false,
      "inputs": [
        {
          "indexed": false,
          "internalType": "uint256",
          "name": "id",
          "type": "uint256"
        },
        {
          "indexed": false,
          "internalType": "uint256",
          "name": "timestamp",
          "type": "uint256"
        }
      ],
      "name": "ProductDelivered",
      "type": "event"
    },
    {
      "anonymous": false,
      "inputs": [
        {
          "indexed": false,
          "internalType": "uint256",
          "name": "id",
          "type": "uint256"
        },
        {
          "indexed": false,
          "internalType": "uint256",
          "name": "newPrice",
          "type": "uint256"
        },
        {
          "indexed": false,
          "internalType": "uint256",
          "name": "timestamp",
          "type": "uint256"
        }
      ],
      "name": "ProductPriceUpdated",
      "type": "event"
    },
    {
      "anonymous": false,
      "inputs": [
        {
          "indexed": false,
          "internalType": "uint256",
          "name": "id",
          "type": "uint256"
        },
        {
          "indexed": false,
          "internalType": "address",
          "name": "buyer",
          "type": "address"
        },
        {
          "indexed": false,
          "internalType": "uint256",
          "name": "timestamp",
          "type": "uint256"
        },
        {
          "indexed": false,
          "internalType": "uint256",
          "name": "quantity",
          "type": "uint256"
        }
      ],
      "name": "ProductPurchased",
      "type": "event"
    },
    {
      "anonymous": false,
      "inputs": [
        {
          "indexed": false,
          "internalType": "uint256",
          "name": "id",
          "type": "uint256"
        },
        {
          "indexed": false,
          "internalType": "uint256",
          "name": "timestamp",
          "type": "uint256"
        }
      ],
      "name": "ProductRemoved",
      "type": "event"
    },
    {
      "anonymous": false,
      "inputs": [
        {
          "indexed": false,
          "internalType": "uint256",
          "name": "id",
          "type": "uint256"
        },
        {
          "indexed": false,
          "internalType": "uint256",
          "name": "newStock",
          "type": "uint256"
        },
        {
          "indexed": false,
          "internalType": "uint256",
          "name": "timestamp",
          "type": "uint256"
        }
      ],
      "name": "ProductStockUpdated",
      "type": "event"
    },
    {
      "anonymous": false,
      "inputs": [
        {
          "indexed": false,
          "internalType": "uint256",
          "name": "id",
          "type": "uint256"
        },
        {
          "indexed": false,
          "internalType": "address",
          "name": "newOwner",
          "type": "address"
        },
        {
          "indexed": false,
          "internalType": "uint256",
          "name": "timestamp",
          "type": "uint256"
        }
      ],
      "name": "ProductTransferred",
      "type": "event"
    },
    {
      "anonymous": false,
      "inputs": [
        {
          "indexed": true,
          "internalType": "bytes32",
          "name": "role",
          "type": "bytes32"
        },
        {
          "indexed": true,
          "internalType": "bytes32",
          "name": "previousAdminRole",
          "type": "bytes32"
        },
        {
          "indexed": true,
          "internalType": "bytes32",
          "name": "newAdminRole",
          "type": "bytes32"
        }
      ],
      "name": "RoleAdminChanged",
      "type": "event"
    },
    {
      "anonymous": false,
      "inputs": [
        {
          "indexed": true,
          "internalType": "bytes32",
          "name": "role",
          "type": "bytes32"
        },
        {
          "indexed": true,
          "internalType": "address",
          "name": "account",
          "type": "address"
        },
        {
          "indexed": true,
          "internalType": "address",
          "name": "sender",
          "type": "address"
        }
      ],
      "name": "RoleGranted",
      "type": "event"
    },
    {
      "anonymous": false,
      "inputs": [
        {
          "indexed": true,
          "internalType": "bytes32",
          "name": "role",
          "type": "bytes32"
        },
        {
          "indexed": true,
          "internalType": "address",
          "name": "account",
          "type": "address"
        },
        {
          "indexed": true,
          "internalType": "address",
          "name": "sender",
          "type": "address"
        }
      ],
      "name": "RoleRevoked",
      "type": "event"
    },
    {
      "anonymous": false,
      "inputs": [
        {
          "indexed": false,
          "internalType": "uint256",
          "name": "id",
          "type": "uint256"
        },
        {
          "indexed": false,
          "internalType": "string",
          "name": "newStatus",
          "type": "string"
        },
        {
          "indexed": false,
          "internalType": "uint256",
          "name": "timestamp",
          "type": "uint256"
        }
      ],
      "name": "StatusUpdated",
      "type": "event"
    },
    {
      "inputs": [],
      "name": "ADMIN_ROLE",
      "outputs": [
        {
          "internalType": "bytes32",
          "name": "",
          "type": "bytes32"
        }
      ],
      "stateMutability": "view",
      "type": "function",
      "constant": true
    },
    {
      "inputs": [],
      "name": "DEFAULT_ADMIN_ROLE",
      "outputs": [
        {
          "internalType": "bytes32",
          "name": "",
          "type": "bytes32"
        }
      ],
      "stateMutability": "view",
      "type": "function",
      "constant": true
    },
    {
      "inputs": [
        {
          "internalType": "bytes32",
          "name": "role",
          "type": "bytes32"
        }
      ],
      "name": "getRoleAdmin",
      "outputs": [
        {
          "internalType": "bytes32",
          "name": "",
          "type": "bytes32"
        }
      ],
      "stateMutability": "view",
      "type": "function",
      "constant": true
    },
    {
      "inputs": [
        {
          "internalType": "bytes32",
          "name": "role",
          "type": "bytes32"
        },
        {
          "internalType": "address",
          "name": "account",
          "type": "address"
        }
      ],
      "name": "grantRole",
      "outputs": [],
      "stateMutability": "nonpayable",
      "type": "function"
    },
    {
      "inputs": [
        {
          "internalType": "bytes32",
          "name": "role",
          "type": "bytes32"
        },
        {
          "internalType": "address",
          "name": "account",
          "type": "address"
        }
      ],
      "name": "hasRole",
      "outputs": [
        {
          "internalType": "bool",
          "name": "",
          "type": "bool"
        }
      ],
      "stateMutability": "view",
      "type": "function",
      "constant": true
    },
    {
      "inputs": [],
      "name": "productCount",
      "outputs": [
        {
          "internalType": "uint256",
          "name": "",
          "type": "uint256"
        }
      ],
      "stateMutability": "view",
      "type": "function",
      "constant": true
    },
    {
      "inputs": [
        {
          "internalType": "uint256",
          "name": "",
          "type": "uint256"
        }
      ],
      "name": "products",
      "outputs": [
        {
          "internalType": "uint256",
          "name": "id",
          "type": "uint256"
        },
        {
          "internalType": "string",
          "name": "name",
          "type": "string"
        },
        {
          "internalType": "uint256",
          "name": "price",
          "type": "uint256"
        },
        {
          "internalType": "uint256",
          "name": "stock",
          "type": "uint256"
        },
        {
          "internalType": "address",
          "name": "owner",
          "type": "address"
        },
        {
          "internalType": "string",
          "name": "location",
          "type": "string"
        },
        {
          "internalType": "string",
          "name": "status",
          "type": "string"
        },
        {
          "internalType": "uint256",
          "name": "createdAt",
          "type": "uint256"
        },
        {
          "internalType": "uint256",
          "name": "transferredAt",
          "type": "uint256"
        },
        {
          "internalType": "uint256",
          "name": "deliveredAt",
          "type": "uint256"
        },
        {
          "internalType": "bool",
          "name": "isDelivered",
          "type": "bool"
        },
        {
          "internalType": "address",
          "name": "finalCustomer",
          "type": "address"
        }
      ],
      "stateMutability": "view",
      "type": "function",
      "constant": true
    },
    {
      "inputs": [
        {
          "internalType": "bytes32",
          "name": "role",
          "type": "bytes32"
        },
        {
          "internalType": "address",
          "name": "account",
          "type": "address"
        }
      ],
      "name": "renounceRole",
      "outputs": [],
      "stateMutability": "nonpayable",
      "type": "function"
    },
    {
      "inputs": [
        {
          "internalType": "bytes32",
          "name": "role",
          "type": "bytes32"
        },
        {
          "internalType": "address",
          "name": "account",
          "type": "address"
        }
      ],
      "name": "revokeRole",
      "outputs": [],
      "stateMutability": "nonpayable",
      "type": "function"
    },
    {
      "inputs": [
        {
          "internalType": "bytes4",
          "name": "interfaceId",
          "type": "bytes4"
        }
      ],
      "name": "supportsInterface",
      "outputs": [
        {
          "internalType": "bool",
          "name": "",
          "type": "bool"
        }
      ],
      "stateMutability": "view",
      "type": "function",
      "constant": true
    },
    {
      "stateMutability": "payable",
      "type": "receive",
      "payable": true
    },
    {
      "inputs": [
        {
          "internalType": "string",
          "name": "_name",
          "type": "string"
        },
        {
          "internalType": "uint256",
          "name": "_price",
          "type": "uint256"
        },
        {
          "internalType": "uint256",
          "name": "_stock",
          "type": "uint256"
        }
      ],
      "name": "addProduct",
      "outputs": [],
      "stateMutability": "nonpayable",
      "type": "function"
    },
    {
      "inputs": [
        {
          "internalType": "uint256",
          "name": "_productId",
          "type": "uint256"
        },
        {
          "internalType": "uint256",
          "name": "_quantity",
          "type": "uint256"
        }
      ],
      "name": "purchaseProduct",
      "outputs": [],
      "stateMutability": "payable",
      "type": "function",
      "payable": true
    },
    {
      "inputs": [
        {
          "internalType": "uint256",
          "name": "_productId",
          "type": "uint256"
        },
        {
          "internalType": "address",
          "name": "_newOwner",
          "type": "address"
        }
      ],
      "name": "transferProduct",
      "outputs": [],
      "stateMutability": "nonpayable",
      "type": "function"
    },
    {
      "inputs": [
        {
          "internalType": "uint256",
          "name": "_productId",
          "type": "uint256"
        }
      ],
      "name": "markDelivered",
      "outputs": [],
      "stateMutability": "nonpayable",
      "type": "function"
    },
    {
      "inputs": [
        {
          "internalType": "uint256",
          "name": "_productId",
          "type": "uint256"
        },
        {
          "internalType": "string",
          "name": "_newLocation",
          "type": "string"
        }
      ],
      "name": "updateLocation",
      "outputs": [],
      "stateMutability": "nonpayable",
      "type": "function"
    },
    {
      "inputs": [
        {
          "internalType": "uint256",
          "name": "_productId",
          "type": "uint256"
        },
        {
          "internalType": "string",
          "name": "_newStatus",
          "type": "string"
        }
      ],
      "name": "updateStatus",
      "outputs": [],
      "stateMutability": "nonpayable",
      "type": "function"
    },
    {
      "inputs": [
        {
          "internalType": "uint256",
          "name": "_productId",
          "type": "uint256"
        },
        {
          "internalType": "uint256",
          "name": "_newPrice",
          "type": "uint256"
        }
      ],
      "name": "updateProductPrice",
      "outputs": [],
      "stateMutability": "nonpayable",
      "type": "function"
    },
    {
      "inputs": [
        {
          "internalType": "uint256",
          "name": "_productId",
          "type": "uint256"
        },
        {
          "internalType": "uint256",
          "name": "_newStock",
          "type": "uint256"
        }
      ],
      "name": "updateProductStock",
      "outputs": [],
      "stateMutability": "nonpayable",
      "type": "function"
    },
    {
      "inputs": [
        {
          "internalType": "uint256",
          "name": "_productId",
          "type": "uint256"
        }
      ],
      "name": "removeProduct",
      "outputs": [],
      "stateMutability": "nonpayable",
      "type": "function"
    },
    {
      "inputs": [
        {
          "internalType": "uint256",
          "name": "_productId",
          "type": "uint256"
        }
      ],
      "name": "getHistory",
      "outputs": [
        {
          "internalType": "string[]",
          "name": "",
          "type": "string[]"
        }
      ],
      "stateMutability": "view",
      "type": "function",
      "constant": true
    },
    {
      "inputs": [
        {
          "internalType": "uint256",
          "name": "_productId",
          "type": "uint256"
        }
      ],
      "name": "getProductBasicDetails",
      "outputs": [
        {
          "internalType": "uint256",
          "name": "id",
          "type": "uint256"
        },
        {
          "internalType": "string",
          "name": "name",
          "type": "string"
        },
        {
          "internalType": "uint256",
          "name": "price",
          "type": "uint256"
        },
        {
          "internalType": "uint256",
          "name": "stock",
          "type": "uint256"
        },
        {
          "internalType": "address",
          "name": "owner",
          "type": "address"
        },
        {
          "internalType": "string",
          "name": "location",
          "type": "string"
        },
        {
          "internalType": "string",
          "name": "status",
          "type": "string"
        }
      ],
      "stateMutability": "view",
      "type": "function",
      "constant": true
    },
    {
      "inputs": [
        {
          "internalType": "uint256",
          "name": "_productId",
          "type": "uint256"
        }
      ],
      "name": "getProductDeliveryDetails",
      "outputs": [
        {
          "internalType": "uint256",
          "name": "transferredAt",
          "type": "uint256"
        },
        {
          "internalType": "uint256",
          "name": "deliveredAt",
          "type": "uint256"
        },
        {
          "internalType": "bool",
          "name": "isDelivered",
          "type": "bool"
        },
        {
          "internalType": "address",
          "name": "finalCustomer",
          "type": "address"
        }
      ],
      "stateMutability": "view",
      "type": "function",
      "constant": true
    }
  ],
  "bytecode": "0x608060405260006002553480156200001657600080fd5b50620000406000801b732fc6c8609c61c3c3b15f892a0fbca3a60546fa156200008c60201b60201c565b620000867fa49807205ce4d355092ef5a8a18f56e8913cf4a201fbe287825b095693c21775732fc6c8609c61c3c3b15f892a0fbca3a60546fa156200008c60201b60201c565b620001ef565b6200009e82826200017d60201b60201c565b6200017957600160008084815260200190815260200160002060000160008373ffffffffffffffffffffffffffffffffffffffff1673ffffffffffffffffffffffffffffffffffffffff16815260200190815260200160002060006101000a81548160ff0219169083151502179055506200011e620001e760201b60201c565b73ffffffffffffffffffffffffffffffffffffffff168173ffffffffffffffffffffffffffffffffffffffff16837f2f8788117e7eff1d82e926ec794901d17c78024a50270940304540a733656f0d60405160405180910390a45b5050565b600080600084815260200190815260200160002060000160008373ffffffffffffffffffffffffffffffffffffffff1673ffffffffffffffffffffffffffffffffffffffff16815260200190815260200160002060009054906101000a900460ff16905092915050565b600033905090565b614d4480620001ff6000396000f3fe6080604052600436106101395760003560e01c80639a7c9748116100ab578063d1b34dd81161006f578063d1b34dd81461046c578063d547741f14610495578063e0f6ef87146104be578063e43059e5146104e9578063eb826a5f14610512578063fd2314111461053b57610140565b80639a7c97481461037c5780639c3bddb2146103bf578063a0440426146103e8578063a217fddf14610404578063c8691b2a1461042f57610140565b806336568abe116100fd57806336568abe146102515780634ec0c9e91461027a5780635ee95cae146102a357806375b238fc146102cc5780637acc0b20146102f757806391d148541461033f57610140565b806301ffc9a714610145578063070f68ef14610182578063125b0b34146101c2578063248a9ca3146101eb5780632f2ff15d1461022857610140565b3661014057005b600080fd5b34801561015157600080fd5b5061016c6004803603810190610167919061363d565b610564565b60405161017991906142f3565b60405180910390f35b34801561018e57600080fd5b506101a960048036038101906101a491906136cd565b6105de565b6040516101b994939291906147c4565b60405180910390f35b3480156101ce57600080fd5b506101e960048036038101906101e49190613666565b6109c1565b005b3480156101f757600080fd5b50610212600480360381019061020d91906135d8565b610e79565b60405161021f919061430e565b60405180910390f35b34801561023457600080fd5b5061024f600480360381019061024a9190613601565b610e98565b005b34801561025d57600080fd5b5061027860048036038101906102739190613601565b610eb9565b005b34801561028657600080fd5b506102a1600480360381019061029c9190613732565b610f3c565b005b3480156102af57600080fd5b506102ca60048036038101906102c591906136cd565b6110b9565b005b3480156102d857600080fd5b506102e1611246565b6040516102ee919061430e565b60405180910390f35b34801561030357600080fd5b5061031e600480360381019061031991906136cd565b61126a565b6040516103369c9b9a99989796959493929190614664565b60405180910390f35b34801561034b57600080fd5b5061036660048036038101906103619190613601565b6114af565b60405161037391906142f3565b60405180910390f35b34801561038857600080fd5b506103a3600480360381019061039e91906136cd565b611519565b6040516103b697969594939291906145e0565b60405180910390f35b3480156103cb57600080fd5b506103e660048036038101906103e19190613786565b611917565b005b61040260048036038101906103fd9190613786565b611a93565b005b34801561041057600080fd5b5061041961220f565b604051610426919061430e565b60405180910390f35b34801561043b57600080fd5b50610456600480360381019061045191906136cd565b612216565b60405161046391906142d1565b60405180910390f35b34801561047857600080fd5b50610493600480360381019061048e9190613732565b61239f565b005b3480156104a157600080fd5b506104bc60048036038101906104b79190613601565b61254b565b005b3480156104ca57600080fd5b506104d361256c565b6040516104e0919061450b565b60405180910390f35b3480156104f557600080fd5b50610510600480360381019061050b91906136f6565b612572565b005b34801561051e57600080fd5b50610539600480360381019061053491906136cd565b612799565b005b34801561054757600080fd5b50610562600480360381019061055d9190613786565b612a08565b005b60007f7965db0b000000000000000000000000000000000000000000000000000000007bffffffffffffffffffffffffffffffffffffffffffffffffffffffff1916827bffffffffffffffffffffffffffffffffffffffffffffffffffffffff191614806105d757506105d682612b85565b5b9050919050565b600080600080600060016000878152602001908152602001600020604051806101a00160405290816000820154815260200160018201805461061f90614b6a565b80601f016020809104026020016040519081016040528092919081815260200182805461064b90614b6a565b80156106985780601f1061066d57610100808354040283529160200191610698565b820191906000526020600020905b81548152906001019060200180831161067b57829003601f168201915b5050505050815260200160028201548152602001600382015481526020016004820160009054906101000a900473ffffffffffffffffffffffffffffffffffffffff1673ffffffffffffffffffffffffffffffffffffffff1673ffffffffffffffffffffffffffffffffffffffff16815260200160058201805461071b90614b6a565b80601f016020809104026020016040519081016040528092919081815260200182805461074790614b6a565b80156107945780601f1061076957610100808354040283529160200191610794565b820191906000526020600020905b81548152906001019060200180831161077757829003601f168201915b505050505081526020016006820180546107ad90614b6a565b80601f01602080910402602001604051908101604052809291908181526020018280546107d990614b6a565b80156108265780601f106107fb57610100808354040283529160200191610826565b820191906000526020600020905b81548152906001019060200180831161080957829003601f168201915b50505050508152602001600782015481526020016008820154815260200160098201548152602001600a8201805480602002602001604051908101604052809291908181526020016000905b8282101561091e57838290600052602060002001805461089190614b6a565b80601f01602080910402602001604051908101604052809291908181526020018280546108bd90614b6a565b801561090a5780601f106108df5761010080835404028352916020019161090a565b820191906000526020600020905b8154815290600101906020018083116108ed57829003601f168201915b505050505081526020019060010190610872565b505050508152602001600b820160009054906101000a900460ff16151515158152602001600b820160019054906101000a900473ffffffffffffffffffffffffffffffffffffffff1673ffffffffffffffffffffffffffffffffffffffff1673ffffffffffffffffffffffffffffffffffffffff168152505090508061010001518161012001518261016001518361018001519450945094509450509193509193565b6109eb7fa49807205ce4d355092ef5a8a18f56e8913cf4a201fbe287825b095693c21775336114af565b610a2a576040517f08c379a0000000000000000000000000000000000000000000000000000000008152600401610a219061444b565b60405180910390fd5b60008211610a6d576040517f08c379a0000000000000000000000000000000000000000000000000000000008152600401610a649061436b565b60405180910390fd5b60008111610ab0576040517f08c379a0000000000000000000000000000000000000000000000000000000008152600401610aa7906144cb565b60405180910390fd5b60026000815480929190610ac390614b9c565b9190505550604051806101a0016040528060025481526020018481526020018381526020018281526020013373ffffffffffffffffffffffffffffffffffffffff1681526020016040518060400160405280601081526020017f496e697469616c204c6f636174696f6e0000000000000000000000000000000081525081526020016040518060400160405280600c81526020017f4d616e756661637475726564000000000000000000000000000000000000000081525081526020014281526020016000815260200160008152602001600067ffffffffffffffff811115610bd5577f4e487b7100000000000000000000000000000000000000000000000000000000600052604160045260246000fd5b604051908082528060200260200182016040528015610c0857816020015b6060815260200190600190039081610bf35790505b508152602001600015158152602001600073ffffffffffffffffffffffffffffffffffffffff16815250600160006002548152602001908152602001600020600082015181600001556020820151816001019080519060200190610c6d929190613394565b50604082015181600201556060820151816003015560808201518160040160006101000a81548173ffffffffffffffffffffffffffffffffffffffff021916908373ffffffffffffffffffffffffffffffffffffffff16021790555060a0820151816005019080519060200190610ce5929190613394565b5060c0820151816006019080519060200190610d02929190613394565b5060e082015181600701556101008201518160080155610120820151816009015561014082015181600a019080519060200190610d4092919061341a565b5061016082015181600b0160006101000a81548160ff02191690831515021790555061018082015181600b0160016101000a81548173ffffffffffffffffffffffffffffffffffffffff021916908373ffffffffffffffffffffffffffffffffffffffff160217905550905050600160006002548152602001908152602001600020600a0180600181540180825580915050600190039060005260206000200160006040518060400160405280600f81526020017f50726f647563742063726561746564000000000000000000000000000000000081525090919091509080519060200190610e30929190613394565b507f17f7737762d070f6ed43347dbfd9d3c5207a890da32e286434e611dbae7d45a16002548484843342604051610e6c96959493929190614733565b60405180910390a1505050565b6000806000838152602001908152602001600020600101549050919050565b610ea182610e79565b610eaa81612bef565b610eb48383612c03565b505050565b610ec1612ce3565b73ffffffffffffffffffffffffffffffffffffffff168173ffffffffffffffffffffffffffffffffffffffff1614610f2e576040517f08c379a0000000000000000000000000000000000000000000000000000000008152600401610f25906144eb565b60405180910390fd5b610f388282612ceb565b5050565b813373ffffffffffffffffffffffffffffffffffffffff166001600083815260200190815260200160002060040160009054906101000a900473ffffffffffffffffffffffffffffffffffffffff1673ffffffffffffffffffffffffffffffffffffffff1614610fe1576040517f08c379a0000000000000000000000000000000000000000000000000000000008152600401610fd8906143eb565b60405180910390fd5b600060016000858152602001908152602001600020905082816005019080519060200190611010929190613394565b5080600a018361101f42612dcc565b6040516020016110309291906141e9565b604051602081830303815290604052908060018154018082558091505060019003906000526020600020016000909190919091509080519060200190611077929190613394565b507f08c1aa8a3ded74821ab8fe6981a7dd0f9ebb0c3fcef9196f34b9f4e9d0e4edcd8484426040516110ab939291906145a2565b60405180910390a150505050565b6110e37fa49807205ce4d355092ef5a8a18f56e8913cf4a201fbe287825b095693c21775336114af565b611122576040517f08c379a00000000000000000000000000000000000000000000000000000000081526004016111199061444b565b60405180910390fd5b6001600082815260200190815260200160002060008082016000905560018201600061114e919061347a565b600282016000905560038201600090556004820160006101000a81549073ffffffffffffffffffffffffffffffffffffffff0219169055600582016000611195919061347a565b6006820160006111a5919061347a565b600782016000905560088201600090556009820160009055600a820160006111cd91906134ba565b600b820160006101000a81549060ff0219169055600b820160016101000a81549073ffffffffffffffffffffffffffffffffffffffff021916905550507fd647384cccbd8b477a7b02b9e866072937e9a23b473b9de13fc0c6cb1d392a0a814260405161123b92919061479b565b60405180910390a150565b7fa49807205ce4d355092ef5a8a18f56e8913cf4a201fbe287825b095693c2177581565b600160205280600052604060002060009150905080600001549080600101805461129390614b6a565b80601f01602080910402602001604051908101604052809291908181526020018280546112bf90614b6a565b801561130c5780601f106112e15761010080835404028352916020019161130c565b820191906000526020600020905b8154815290600101906020018083116112ef57829003601f168201915b5050505050908060020154908060030154908060040160009054906101000a900473ffffffffffffffffffffffffffffffffffffffff169080600501805461135390614b6a565b80601f016020809104026020016040519081016040528092919081815260200182805461137f90614b6a565b80156113cc5780601f106113a1576101008083540402835291602001916113cc565b820191906000526020600020905b8154815290600101906020018083116113af57829003601f168201915b5050505050908060060180546113e190614b6a565b80601f016020809104026020016040519081016040528092919081815260200182805461140d90614b6a565b801561145a5780601f1061142f5761010080835404028352916020019161145a565b820191906000526020600020905b81548152906001019060200180831161143d57829003601f168201915b50505050509080600701549080600801549080600901549080600b0160009054906101000a900460ff169080600b0160019054906101000a900473ffffffffffffffffffffffffffffffffffffffff1690508c565b600080600084815260200190815260200160002060000160008373ffffffffffffffffffffffffffffffffffffffff1673ffffffffffffffffffffffffffffffffffffffff16815260200190815260200160002060009054906101000a900460ff16905092915050565b6000606060008060006060806000600160008a8152602001908152602001600020604051806101a00160405290816000820154815260200160018201805461156090614b6a565b80601f016020809104026020016040519081016040528092919081815260200182805461158c90614b6a565b80156115d95780601f106115ae576101008083540402835291602001916115d9565b820191906000526020600020905b8154815290600101906020018083116115bc57829003601f168201915b5050505050815260200160028201548152602001600382015481526020016004820160009054906101000a900473ffffffffffffffffffffffffffffffffffffffff1673ffffffffffffffffffffffffffffffffffffffff1673ffffffffffffffffffffffffffffffffffffffff16815260200160058201805461165c90614b6a565b80601f016020809104026020016040519081016040528092919081815260200182805461168890614b6a565b80156116d55780601f106116aa576101008083540402835291602001916116d5565b820191906000526020600020905b8154815290600101906020018083116116b857829003601f168201915b505050505081526020016006820180546116ee90614b6a565b80601f016020809104026020016040519081016040528092919081815260200182805461171a90614b6a565b80156117675780601f1061173c57610100808354040283529160200191611767565b820191906000526020600020905b81548152906001019060200180831161174a57829003601f168201915b50505050508152602001600782015481526020016008820154815260200160098201548152602001600a8201805480602002602001604051908101604052809291908181526020016000905b8282101561185f5783829060005260206000200180546117d290614b6a565b80601f01602080910402602001604051908101604052809291908181526020018280546117fe90614b6a565b801561184b5780601f106118205761010080835404028352916020019161184b565b820191906000526020600020905b81548152906001019060200180831161182e57829003601f168201915b5050505050815260200190600101906117b3565b505050508152602001600b820160009054906101000a900460ff16151515158152602001600b820160019054906101000a900473ffffffffffffffffffffffffffffffffffffffff1673ffffffffffffffffffffffffffffffffffffffff1673ffffffffffffffffffffffffffffffffffffffff16815250509050806000015181602001518260400151836060015184608001518560a001518660c00151975097509750975097509750975050919395979092949650565b6119417fa49807205ce4d355092ef5a8a18f56e8913cf4a201fbe287825b095693c21775336114af565b611980576040517f08c379a00000000000000000000000000000000000000000000000000000000081526004016119779061444b565b60405180910390fd5b6000600160008481526020019081526020016000209050600082116119da576040517f08c379a00000000000000000000000000000000000000000000000000000000081526004016119d19061436b565b60405180910390fd5b81816002018190555080600a0180600181540180825580915050600190039060005260206000200160006040518060400160405280600d81526020017f507269636520757064617465640000000000000000000000000000000000000081525090919091509080519060200190611a52929190613394565b507f7d30a0d7db7f5999a19cf6f1ab0ae8001b957ea555ca53d2ead7b44f99f9f9d1838342604051611a8693929190614809565b60405180910390a1505050565b60006001600084815260200190815260200160002090508181600301541015611af1576040517f08c379a0000000000000000000000000000000000000000000000000000000008152600401611ae89061438b565b60405180910390fd5b818160020154611b0191906149e5565b341015611b43576040517f08c379a0000000000000000000000000000000000000000000000000000000008152600401611b3a9061442b565b60405180910390fd5b80600b0160009054906101000a900460ff1615611b95576040517f08c379a0000000000000000000000000000000000000000000000000000000008152600401611b8c9061446b565b60405180910390fd5b600073ffffffffffffffffffffffffffffffffffffffff1681600b0160019054906101000a900473ffffffffffffffffffffffffffffffffffffffff1673ffffffffffffffffffffffffffffffffffffffff1614611c28576040517f08c379a0000000000000000000000000000000000000000000000000000000008152600401611c1f906143ab565b60405180910390fd5b60005b828110156121055760026000815480929190611c4690614b9c565b9190505550604051806101a001604052806002548152602001836001018054611c6e90614b6a565b80601f0160208091040260200160405190810160405280929190818152602001828054611c9a90614b6a565b8015611ce75780601f10611cbc57610100808354040283529160200191611ce7565b820191906000526020600020905b815481529060010190602001808311611cca57829003601f168201915b5050505050815260200183600201548152602001600181526020018360040160009054906101000a900473ffffffffffffffffffffffffffffffffffffffff1673ffffffffffffffffffffffffffffffffffffffff168152602001836005018054611d5190614b6a565b80601f0160208091040260200160405190810160405280929190818152602001828054611d7d90614b6a565b8015611dca5780601f10611d9f57610100808354040283529160200191611dca565b820191906000526020600020905b815481529060010190602001808311611dad57829003601f168201915b505050505081526020016040518060400160405280600981526020017f5075726368617365640000000000000000000000000000000000000000000000815250815260200142815260200142815260200160008152602001600067ffffffffffffffff811115611e63577f4e487b7100000000000000000000000000000000000000000000000000000000600052604160045260246000fd5b604051908082528060200260200182016040528015611e9657816020015b6060815260200190600190039081611e815790505b5081526020016000151581526020013373ffffffffffffffffffffffffffffffffffffffff16815250600160006002548152602001908152602001600020600082015181600001556020820151816001019080519060200190611efa929190613394565b50604082015181600201556060820151816003015560808201518160040160006101000a81548173ffffffffffffffffffffffffffffffffffffffff021916908373ffffffffffffffffffffffffffffffffffffffff16021790555060a0820151816005019080519060200190611f72929190613394565b5060c0820151816006019080519060200190611f8f929190613394565b5060e082015181600701556101008201518160080155610120820151816009015561014082015181600a019080519060200190611fcd92919061341a565b5061016082015181600b0160006101000a81548160ff02191690831515021790555061018082015181600b0160016101000a81548173ffffffffffffffffffffffffffffffffffffffff021916908373ffffffffffffffffffffffffffffffffffffffff16021790555090505081600a0161204733612fa1565b61205085612dcc565b61205942612dcc565b60405160200161206b93929190614197565b6040516020818303038152906040529080600181540180825580915050600190039060005260206000200160009091909190915090805190602001906120b2929190613394565b507f7d3c39a6cce20f6949eff0833a4d54fca734dc7c6027773d8885e7faeac98a956002543342866040516120ea949392919061455d565b60405180910390a180806120fd90614b9c565b915050611c2b565b508181600301600082825461211a9190614a3f565b9250508190555080600a0180600181540180825580915050600190039060005260206000200160006040518060400160405280601181526020017f50726f647563742070757263686173656400000000000000000000000000000081525090919091509080519060200190612190929190613394565b508181600201546121a191906149e5565b34111561220a573373ffffffffffffffffffffffffffffffffffffffff166108fc8383600201546121d291906149e5565b346121dd9190614a3f565b9081150290604051600060405180830381858888f19350505050158015612208573d6000803e3d6000fd5b505b505050565b6000801b81565b60606000600160008481526020019081526020016000209050600081600a0180549050905060008167ffffffffffffffff81111561227d577f4e487b7100000000000000000000000000000000000000000000000000000000600052604160045260246000fd5b6040519080825280602002602001820160405280156122b057816020015b606081526020019060019003908161229b5790505b50905060005b828110156123935783600a0181815481106122fa577f4e487b7100000000000000000000000000000000000000000000000000000000600052603260045260246000fd5b9060005260206000200161231c8286600701546123179190614927565b612dcc565b60405160200161232d929190614101565b604051602081830303815290604052828281518110612375577f4e487b7100000000000000000000000000000000000000000000000000000000600052603260045260246000fd5b6020026020010181905250808061238b90614b9c565b9150506122b6565b50809350505050919050565b6123c97fa49807205ce4d355092ef5a8a18f56e8913cf4a201fbe287825b095693c21775336114af565b8061243557503373ffffffffffffffffffffffffffffffffffffffff166001600084815260200190815260200160002060040160009054906101000a900473ffffffffffffffffffffffffffffffffffffffff1673ffffffffffffffffffffffffffffffffffffffff16145b612474576040517f08c379a000000000000000000000000000000000000000000000000000000000815260040161246b906144ab565b60405180910390fd5b6000600160008481526020019081526020016000209050818160060190805190602001906124a3929190613394565b5080600a01826124b242612dcc565b6040516020016124c392919061415d565b60405160208183030381529060405290806001815401808255809150506001900390600052602060002001600090919091909150908051906020019061250a929190613394565b507f8f06a6a7dcdfa9dacca5f151d0d13cd9437b0faa08953456979391d13f4d346f83834260405161253e939291906145a2565b60405180910390a1505050565b61255482610e79565b61255d81612bef565b6125678383612ceb565b505050565b60025481565b60006001600084815260200190815260200160002090506125b37fa49807205ce4d355092ef5a8a18f56e8913cf4a201fbe287825b095693c21775336114af565b8061260d57503373ffffffffffffffffffffffffffffffffffffffff168160040160009054906101000a900473ffffffffffffffffffffffffffffffffffffffff1673ffffffffffffffffffffffffffffffffffffffff16145b61264c576040517f08c379a0000000000000000000000000000000000000000000000000000000008152600401612643906143cb565b60405180910390fd5b80600b0160009054906101000a900460ff161561269e576040517f08c379a00000000000000000000000000000000000000000000000000000000081526004016126959061446b565b60405180910390fd5b818160040160006101000a81548173ffffffffffffffffffffffffffffffffffffffff021916908373ffffffffffffffffffffffffffffffffffffffff16021790555042816008018190555080600a016126f783612fa1565b61270042612dcc565b604051602001612711929190614223565b604051602081830303815290604052908060018154018082558091505060019003906000526020600020016000909190919091509080519060200190612758929190613394565b507fad757ca43ebff3d5691f5cee236513ed066a0d5bd2aac8854363da617d40eb2583834260405161278c93929190614526565b60405180910390a1505050565b803373ffffffffffffffffffffffffffffffffffffffff166001600083815260200190815260200160002060040160009054906101000a900473ffffffffffffffffffffffffffffffffffffffff1673ffffffffffffffffffffffffffffffffffffffff161461283e576040517f08c379a0000000000000000000000000000000000000000000000000000000008152600401612835906143eb565b60405180910390fd5b60006001600084815260200190815260200160002090503373ffffffffffffffffffffffffffffffffffffffff1681600b0160019054906101000a900473ffffffffffffffffffffffffffffffffffffffff1673ffffffffffffffffffffffffffffffffffffffff16146128e7576040517f08c379a00000000000000000000000000000000000000000000000000000000081526004016128de9061448b565b60405180910390fd5b600181600b0160006101000a81548160ff0219169083151502179055504281600901819055506040518060400160405280600981526020017f44656c697665726564000000000000000000000000000000000000000000000081525081600601908051906020019061295a929190613394565b5080600a0161296833612fa1565b61297142612dcc565b60405160200161298292919061425d565b6040516020818303038152906040529080600181540180825580915050600190039060005260206000200160009091909190915090805190602001906129c9929190613394565b507f26b22e11bb82e495373f9064c9f1db3c19dd810594822900684274cfd7f7a95583426040516129fb92919061479b565b60405180910390a1505050565b612a327fa49807205ce4d355092ef5a8a18f56e8913cf4a201fbe287825b095693c21775336114af565b612a71576040517f08c379a0000000000000000000000000000000000000000000000000000000008152600401612a689061444b565b60405180910390fd5b60006001600084815260200190815260200160002090506000821015612acc576040517f08c379a0000000000000000000000000000000000000000000000000000000008152600401612ac39061440b565b60405180910390fd5b81816003018190555080600a0180600181540180825580915050600190039060005260206000200160006040518060400160405280600d81526020017f53746f636b20757064617465640000000000000000000000000000000000000081525090919091509080519060200190612b44929190613394565b507f420a24f336320dcd3746baf9372bc9fd6d0fda079dce3a3651ce95b1c1762b8e838342604051612b7893929190614809565b60405180910390a1505050565b60007f01ffc9a7000000000000000000000000000000000000000000000000000000007bffffffffffffffffffffffffffffffffffffffffffffffffffffffff1916827bffffffffffffffffffffffffffffffffffffffffffffffffffffffff1916149050919050565b612c0081612bfb612ce3565b612fe8565b50565b612c0d82826114af565b612cdf57600160008084815260200190815260200160002060000160008373ffffffffffffffffffffffffffffffffffffffff1673ffffffffffffffffffffffffffffffffffffffff16815260200190815260200160002060006101000a81548160ff021916908315150217905550612c84612ce3565b73ffffffffffffffffffffffffffffffffffffffff168173ffffffffffffffffffffffffffffffffffffffff16837f2f8788117e7eff1d82e926ec794901d17c78024a50270940304540a733656f0d60405160405180910390a45b5050565b600033905090565b612cf582826114af565b15612dc857600080600084815260200190815260200160002060000160008373ffffffffffffffffffffffffffffffffffffffff1673ffffffffffffffffffffffffffffffffffffffff16815260200190815260200160002060006101000a81548160ff021916908315150217905550612d6d612ce3565b73ffffffffffffffffffffffffffffffffffffffff168173ffffffffffffffffffffffffffffffffffffffff16837ff6391f5c32d9c69d2a47ea670b442974b53935d1edc7fd64eb21e047a839171b60405160405180910390a45b5050565b60606000821415612e14576040518060400160405280600181526020017f30000000000000000000000000000000000000000000000000000000000000008152509050612f9c565b600082905060005b60008214612e46578080612e2f90614b9c565b915050600a82612e3f91906149b4565b9150612e1c565b60008167ffffffffffffffff811115612e88577f4e487b7100000000000000000000000000000000000000000000000000000000600052604160045260246000fd5b6040519080825280601f01601f191660200182016040528015612eba5781602001600182028036833780820191505090505b50905060008290505b60008614612f9457600181612ed89190614a3f565b90506000600a8088612eea91906149b4565b612ef491906149e5565b87612eff9190614a3f565b6030612f0b919061497d565b905060008160f81b905080848481518110612f4f577f4e487b7100000000000000000000000000000000000000000000000000000000600052603260045260246000fd5b60200101907effffffffffffffffffffffffffffffffffffffffffffffffffffffffffffff1916908160001a905350600a88612f8b91906149b4565b97505050612ec3565b819450505050505b919050565b6060612fc28273ffffffffffffffffffffffffffffffffffffffff16612dcc565b604051602001612fd2919061413b565b6040516020818303038152906040529050919050565b612ff282826114af565b61306957612fff8161306d565b61300d8360001c602061309a565b60405160200161301e929190614297565b6040516020818303038152906040526040517f08c379a00000000000000000000000000000000000000000000000000000000081526004016130609190614329565b60405180910390fd5b5050565b60606130938273ffffffffffffffffffffffffffffffffffffffff16601460ff1661309a565b9050919050565b6060600060028360026130ad91906149e5565b6130b79190614927565b67ffffffffffffffff8111156130f6577f4e487b7100000000000000000000000000000000000000000000000000000000600052604160045260246000fd5b6040519080825280601f01601f1916602001820160405280156131285781602001600182028036833780820191505090505b5090507f300000000000000000000000000000000000000000000000000000000000000081600081518110613186577f4e487b7100000000000000000000000000000000000000000000000000000000600052603260045260246000fd5b60200101907effffffffffffffffffffffffffffffffffffffffffffffffffffffffffffff1916908160001a9053507f780000000000000000000000000000000000000000000000000000000000000081600181518110613210577f4e487b7100000000000000000000000000000000000000000000000000000000600052603260045260246000fd5b60200101907effffffffffffffffffffffffffffffffffffffffffffffffffffffffffffff1916908160001a9053506000600184600261325091906149e5565b61325a9190614927565b90505b6001811115613346577f3031323334353637383961626364656600000000000000000000000000000000600f8616601081106132c2577f4e487b7100000000000000000000000000000000000000000000000000000000600052603260045260246000fd5b1a60f81b8282815181106132ff577f4e487b7100000000000000000000000000000000000000000000000000000000600052603260045260246000fd5b60200101907effffffffffffffffffffffffffffffffffffffffffffffffffffffffffffff1916908160001a905350600485901c94508061333f90614b40565b905061325d565b506000841461338a576040517f08c379a00000000000000000000000000000000000000000000000000000000081526004016133819061434b565b60405180910390fd5b8091505092915050565b8280546133a090614b6a565b90600052602060002090601f0160209004810192826133c25760008555613409565b82601f106133db57805160ff1916838001178555613409565b82800160010185558215613409579182015b828111156134085782518255916020019190600101906133ed565b5b50905061341691906134db565b5090565b828054828255906000526020600020908101928215613469579160200282015b82811115613468578251829080519060200190613458929190613394565b509160200191906001019061343a565b5b50905061347691906134f8565b5090565b50805461348690614b6a565b6000825580601f1061349857506134b7565b601f0160209004906000526020600020908101906134b691906134db565b5b50565b50805460008255906000526020600020908101906134d891906134f8565b50565b5b808211156134f45760008160009055506001016134dc565b5090565b5b80821115613518576000818161350f919061347a565b506001016134f9565b5090565b600061352f61352a84614871565b614840565b90508281526020810184848401111561354757600080fd5b613552848285614afe565b509392505050565b60008135905061356981614cb2565b92915050565b60008135905061357e81614cc9565b92915050565b60008135905061359381614ce0565b92915050565b600082601f8301126135aa57600080fd5b81356135ba84826020860161351c565b91505092915050565b6000813590506135d281614cf7565b92915050565b6000602082840312156135ea57600080fd5b60006135f88482850161356f565b91505092915050565b6000806040838503121561361457600080fd5b60006136228582860161356f565b92505060206136338582860161355a565b9150509250929050565b60006020828403121561364f57600080fd5b600061365d84828501613584565b91505092915050565b60008060006060848603121561367b57600080fd5b600084013567ffffffffffffffff81111561369557600080fd5b6136a186828701613599565b93505060206136b2868287016135c3565b92505060406136c3868287016135c3565b9150509250925092565b6000602082840312156136df57600080fd5b60006136ed848285016135c3565b91505092915050565b6000806040838503121561370957600080fd5b6000613717858286016135c3565b92505060206137288582860161355a565b9150509250929050565b6000806040838503121561374557600080fd5b6000613753858286016135c3565b925050602083013567ffffffffffffffff81111561377057600080fd5b61377c85828601613599565b9150509250929050565b6000806040838503121561379957600080fd5b60006137a7858286016135c3565b92505060206137b8858286016135c3565b9150509250929050565b60006137ce8383613878565b905092915050565b6137df81614a73565b82525050565b60006137f0826148c6565b6137fa81856148e9565b93508360208202850161380c856148a1565b8060005b85811015613848578484038952815161382985826137c2565b9450613834836148dc565b925060208a01995050600181019050613810565b50829750879550505050505092915050565b61386381614a85565b82525050565b61387281614a91565b82525050565b6000613883826148d1565b61388d81856148fa565b935061389d818560208601614b0d565b6138a681614ca1565b840191505092915050565b60006138bc826148d1565b6138c6818561490b565b93506138d6818560208601614b0d565b6138df81614ca1565b840191505092915050565b60006138f5826148d1565b6138ff818561491c565b935061390f818560208601614b0d565b80840191505092915050565b6000815461392881614b6a565b613932818661491c565b9450600182166000811461394d576001811461395e57613991565b60ff19831686528186019350613991565b613967856148b1565b60005b838110156139895781548189015260018201915060208101905061396a565b838801955050505b50505092915050565b60006139a760208361490b565b91507f537472696e67733a20686578206c656e67746820696e73756666696369656e746000830152602082019050919050565b60006139e760058361491c565b91507f29206174200000000000000000000000000000000000000000000000000000006000830152600582019050919050565b6000613a27601f8361490b565b91507f5072696365206d7573742062652067726561746572207468616e207a65726f006000830152602082019050919050565b6000613a6760108361490b565b91507f4e6f7420656e6f7567682073746f636b000000000000000000000000000000006000830152602082019050919050565b6000613aa760028361491c565b91507f30780000000000000000000000000000000000000000000000000000000000006000830152600282019050919050565b6000613ae760198361490b565b91507f50726f6475637420616c726561647920707572636861736564000000000000006000830152602082019050919050565b6000613b2760128361491c565b91507f537461747573207570646174656420746f2000000000000000000000000000006000830152601282019050919050565b6000613b6760048361491c565b91507f20617420000000000000000000000000000000000000000000000000000000006000830152600482019050919050565b6000613ba760318361490b565b91507f43616c6c6572206973206e656974686572207468652061646d696e206e6f722060008301527f7468652070726f64756374206f776e65720000000000000000000000000000006020830152604082019050919050565b6000613c0d601b8361490b565b91507f5265737472696374656420746f2070726f64756374206f776e657200000000006000830152602082019050919050565b6000613c4d60018361491c565b91507f29000000000000000000000000000000000000000000000000000000000000006000830152600182019050919050565b6000613c8d600c8361491c565b91507f20285175616e746974793a2000000000000000000000000000000000000000006000830152600c82019050919050565b6000613ccd600d8361491c565b91507f50757263686173656420627920000000000000000000000000000000000000006000830152600d82019050919050565b6000613d0d602b8361490b565b91507f53746f636b206d7573742062652067726561746572207468616e206f7220657160008301527f75616c20746f207a65726f0000000000000000000000000000000000000000006020830152604082019050919050565b6000613d7360148361490b565b91507f496e73756666696369656e74207061796d656e740000000000000000000000006000830152602082019050919050565b6000613db360148361491c565b91507f4c6f636174696f6e207570646174656420746f200000000000000000000000006000830152601482019050919050565b6000613df3600f8361491c565b91507f5472616e7366657272656420746f2000000000000000000000000000000000006000830152600f82019050919050565b6000613e3360148361490b565b91507f5265737472696374656420746f2061646d696e730000000000000000000000006000830152602082019050919050565b6000613e7360198361490b565b91507f50726f6475637420616c72656164792064656c697665726564000000000000006000830152602082019050919050565b6000613eb360168361491c565b91507f44656c69766572656420746f20637573746f6d657220000000000000000000006000830152601682019050919050565b6000613ef3602d8361490b565b91507f4f6e6c79207468652066696e616c20637573746f6d65722063616e206d61726b60008301527f2061732064656c697665726564000000000000000000000000000000000000006020830152604082019050919050565b6000613f59601d8361490b565b91507f556e617574686f72697a656420746f20757064617465207374617475730000006000830152602082019050919050565b6000613f9960178361491c565b91507f416363657373436f6e74726f6c3a206163636f756e74200000000000000000006000830152601782019050919050565b6000613fd9600d8361491c565b91507f202854696d657374616d703a20000000000000000000000000000000000000006000830152600d82019050919050565b6000614019601f8361490b565b91507f53746f636b206d7573742062652067726561746572207468616e207a65726f006000830152602082019050919050565b600061405960118361491c565b91507f206973206d697373696e6720726f6c65200000000000000000000000000000006000830152601182019050919050565b6000614099602f8361490b565b91507f416363657373436f6e74726f6c3a2063616e206f6e6c792072656e6f756e636560008301527f20726f6c657320666f722073656c6600000000000000000000000000000000006020830152604082019050919050565b6140fb81614ae7565b82525050565b600061410d828561391b565b915061411882613fcc565b915061412482846138ea565b915061412f82613c40565b91508190509392505050565b600061414682613a9a565b915061415282846138ea565b915081905092915050565b600061416882613b1a565b915061417482856138ea565b915061417f82613b5a565b915061418b82846138ea565b91508190509392505050565b60006141a282613cc0565b91506141ae82866138ea565b91506141b982613c80565b91506141c582856138ea565b91506141d0826139da565b91506141dc82846138ea565b9150819050949350505050565b60006141f482613da6565b915061420082856138ea565b915061420b82613b5a565b915061421782846138ea565b91508190509392505050565b600061422e82613de6565b915061423a82856138ea565b915061424582613b5a565b915061425182846138ea565b91508190509392505050565b600061426882613ea6565b915061427482856138ea565b915061427f82613b5a565b915061428b82846138ea565b91508190509392505050565b60006142a282613f8c565b91506142ae82856138ea565b91506142b98261404c565b91506142c582846138ea565b91508190509392505050565b600060208201905081810360008301526142eb81846137e5565b905092915050565b6000602082019050614308600083018461385a565b92915050565b60006020820190506143236000830184613869565b92915050565b6000602082019050818103600083015261434381846138b1565b905092915050565b600060208201905081810360008301526143648161399a565b9050919050565b6000602082019050818103600083015261438481613a1a565b9050919050565b600060208201905081810360008301526143a481613a5a565b9050919050565b600060208201905081810360008301526143c481613ada565b9050919050565b600060208201905081810360008301526143e481613b9a565b9050919050565b6000602082019050818103600083015261440481613c00565b9050919050565b6000602082019050818103600083015261442481613d00565b9050919050565b6000602082019050818103600083015261444481613d66565b9050919050565b6000602082019050818103600083015261446481613e26565b9050919050565b6000602082019050818103600083015261448481613e66565b9050919050565b600060208201905081810360008301526144a481613ee6565b9050919050565b600060208201905081810360008301526144c481613f4c565b9050919050565b600060208201905081810360008301526144e48161400c565b9050919050565b600060208201905081810360008301526145048161408c565b9050919050565b600060208201905061452060008301846140f2565b92915050565b600060608201905061453b60008301866140f2565b61454860208301856137d6565b61455560408301846140f2565b949350505050565b600060808201905061457260008301876140f2565b61457f60208301866137d6565b61458c60408301856140f2565b61459960608301846140f2565b95945050505050565b60006060820190506145b760008301866140f2565b81810360208301526145c981856138b1565b90506145d860408301846140f2565b949350505050565b600060e0820190506145f5600083018a6140f2565b818103602083015261460781896138b1565b905061461660408301886140f2565b61462360608301876140f2565b61463060808301866137d6565b81810360a083015261464281856138b1565b905081810360c083015261465681846138b1565b905098975050505050505050565b60006101808201905061467a600083018f6140f2565b818103602083015261468c818e6138b1565b905061469b604083018d6140f2565b6146a8606083018c6140f2565b6146b5608083018b6137d6565b81810360a08301526146c7818a6138b1565b905081810360c08301526146db81896138b1565b90506146ea60e08301886140f2565b6146f86101008301876140f2565b6147066101208301866140f2565b61471461014083018561385a565b6147226101608301846137d6565b9d9c50505050505050505050505050565b600060c08201905061474860008301896140f2565b818103602083015261475a81886138b1565b905061476960408301876140f2565b61477660608301866140f2565b61478360808301856137d6565b61479060a08301846140f2565b979650505050505050565b60006040820190506147b060008301856140f2565b6147bd60208301846140f2565b9392505050565b60006080820190506147d960008301876140f2565b6147e660208301866140f2565b6147f3604083018561385a565b61480060608301846137d6565b95945050505050565b600060608201905061481e60008301866140f2565b61482b60208301856140f2565b61483860408301846140f2565b949350505050565b6000604051905081810181811067ffffffffffffffff8211171561486757614866614c72565b5b8060405250919050565b600067ffffffffffffffff82111561488c5761488b614c72565b5b601f19601f8301169050602081019050919050565b6000819050602082019050919050565b60008190508160005260206000209050919050565b600081519050919050565b600081519050919050565b6000602082019050919050565b600082825260208201905092915050565b600082825260208201905092915050565b600082825260208201905092915050565b600081905092915050565b600061493282614ae7565b915061493d83614ae7565b9250827fffffffffffffffffffffffffffffffffffffffffffffffffffffffffffffffff0382111561497257614971614be5565b5b828201905092915050565b600061498882614af1565b915061499383614af1565b92508260ff038211156149a9576149a8614be5565b5b828201905092915050565b60006149bf82614ae7565b91506149ca83614ae7565b9250826149da576149d9614c14565b5b828204905092915050565b60006149f082614ae7565b91506149fb83614ae7565b9250817fffffffffffffffffffffffffffffffffffffffffffffffffffffffffffffffff0483118215151615614a3457614a33614be5565b5b828202905092915050565b6000614a4a82614ae7565b9150614a5583614ae7565b925082821015614a6857614a67614be5565b5b828203905092915050565b6000614a7e82614ac7565b9050919050565b60008115159050919050565b6000819050919050565b60007fffffffff0000000000000000000000000000000000000000000000000000000082169050919050565b600073ffffffffffffffffffffffffffffffffffffffff82169050919050565b6000819050919050565b600060ff82169050919050565b82818337600083830152505050565b60005b83811015614b2b578082015181840152602081019050614b10565b83811115614b3a576000848401525b50505050565b6000614b4b82614ae7565b91506000821415614b5f57614b5e614be5565b5b600182039050919050565b60006002820490506001821680614b8257607f821691505b60208210811415614b9657614b95614c43565b5b50919050565b6000614ba782614ae7565b91507fffffffffffffffffffffffffffffffffffffffffffffffffffffffffffffffff821415614bda57614bd9614be5565b5b600182019050919050565b7f4e487b7100000000000000000000000000000000000000000000000000000000600052601160045260246000fd5b7f4e487b7100000000000000000000000000000000000000000000000000000000600052601260045260246000fd5b7f4e487b7100000000000000000000000000000000000000000000000000000000600052602260045260246000fd5b7f4e487b7100000000000000000000000000000000000000000000000000000000600052604160045260246000fd5b6000601f19601f8301169050919050565b614cbb81614a73565b8114614cc657600080fd5b50565b614cd281614a91565b8114614cdd57600080fd5b50565b614ce981614a9b565b8114614cf457600080fd5b50565b614d0081614ae7565b8114614d0b57600080fd5b5056fea2646970667358221220721edfeef9173dd2b58ca22d085c51301ac16c78ef74f6b271d7ec0d6d6c429f64736f6c63430008000033",
  "immutableReferences": {},
  "source": "// SPDX-License-Identifier: MIT\r\npragma solidity ^0.8.0;\r\n\r\nimport \"@openzeppelin/contracts/access/AccessControl.sol\";\r\n\r\ncontract SupplyChain is AccessControl {\r\n    struct Product {\r\n        uint256 id;\r\n        string name;\r\n        uint256 price;\r\n        uint256 stock;\r\n        address owner;\r\n        string location;\r\n        string status;\r\n        uint256 createdAt;\r\n        uint256 transferredAt;\r\n        uint256 deliveredAt;\r\n        string[] history;\r\n        bool isDelivered;\r\n        address finalCustomer;  // Tracks the final customer\r\n    }\r\n\r\n    // Roles\r\n    bytes32 public constant ADMIN_ROLE = keccak256(\"ADMIN_ROLE\");\r\n\r\n    mapping(uint256 => Product) public products;\r\n    uint256 public productCount = 0;\r\n\r\n    event ProductCreated(uint256 id, string name, uint256 price, uint256 stock, address owner, uint256 timestamp);\r\n    event ProductPurchased(uint256 id, address buyer, uint256 timestamp, uint256 quantity);\r\n    event ProductTransferred(uint256 id, address newOwner, uint256 timestamp);\r\n    event ProductDelivered(uint256 id, uint256 timestamp);\r\n    event LocationUpdated(uint256 id, string newLocation, uint256 timestamp);\r\n    event StatusUpdated(uint256 id, string newStatus, uint256 timestamp);\r\n    event ProductPriceUpdated(uint256 id, uint256 newPrice, uint256 timestamp);\r\n    event ProductStockUpdated(uint256 id, uint256 newStock, uint256 timestamp);\r\n    event ProductRemoved(uint256 id, uint256 timestamp);\r\n\r\n    constructor() {\r\n        // Grant the deployer the default admin role\r\n        _grantRole(DEFAULT_ADMIN_ROLE, 0x2fc6C8609C61C3C3B15f892A0FBCA3a60546fA15);\r\n        _grantRole(ADMIN_ROLE, 0x2fc6C8609C61C3C3B15f892A0FBCA3a60546fA15);\r\n    }\r\n\r\n    // Modifier to restrict function to only admins\r\n    modifier onlyAdmin() {\r\n        require(hasRole(ADMIN_ROLE, msg.sender), \"Restricted to admins\");\r\n        _;\r\n    }\r\n\r\n    // Modifier to restrict function to only owners\r\n    modifier onlyOwner(uint256 productId) {\r\n        require(products[productId].owner == msg.sender, \"Restricted to product owner\");\r\n        _;\r\n    }\r\n\r\n    // Add Product (Admin only)\r\n    function addProduct(string memory _name, uint256 _price, uint256 _stock) public onlyAdmin {\r\n        require(_price > 0, \"Price must be greater than zero\");\r\n        require(_stock > 0, \"Stock must be greater than zero\");\r\n        productCount++;\r\n        products[productCount] = Product({\r\n            id: productCount,\r\n            name: _name,\r\n            price: _price,\r\n            stock: _stock,\r\n            owner: msg.sender,\r\n            location: \"Initial Location\",\r\n            status: \"Manufactured\",\r\n            createdAt: block.timestamp,\r\n            transferredAt: 0,\r\n            deliveredAt: 0,\r\n            history: new string[](0) ,  \r\n            isDelivered: false,\r\n            finalCustomer: address(0)  // Initially, no final customer\r\n        });\r\n        products[productCount].history.push(\"Product created\");\r\n        emit ProductCreated(productCount, _name, _price, _stock, msg.sender, block.timestamp);\r\n    }\r\n\r\n    // Purchase Product (Any user can purchase)\r\n    function purchaseProduct(uint256 _productId, uint256 _quantity) public payable {\r\n        Product storage product = products[_productId];\r\n        require(product.stock >= _quantity, \"Not enough stock\");\r\n        require(msg.value >= product.price * _quantity, \"Insufficient payment\");\r\n        require(!product.isDelivered, \"Product already delivered\");\r\n\r\n        // Check if the product already has a finalCustomer\r\n        require(product.finalCustomer == address(0), \"Product already purchased\");\r\n\r\n        // Create a new product instance for each unit purchased\r\n        for (uint256 i = 0; i < _quantity; i++) {\r\n            productCount++;\r\n            products[productCount] = Product({\r\n                id: productCount,\r\n                name: product.name,\r\n                price: product.price,\r\n                stock: 1,  // Purchased product will have stock 1 for the buyer\r\n                owner: product.owner,\r\n                location: product.location,\r\n                status: \"Purchased\",\r\n                createdAt: block.timestamp,\r\n                transferredAt: block.timestamp,\r\n                deliveredAt: 0,\r\n                history: new string[](0),\r\n                isDelivered: false,\r\n                finalCustomer: msg.sender\r\n            });\r\n            // Add history for each purchase\r\n            product.history.push(\r\n                string(abi.encodePacked(\r\n                    \"Purchased by \", \r\n                    toString(msg.sender),\r\n                    \" (Quantity: \", \r\n                    uint2str(_quantity), \r\n                    \") at \", \r\n                    uint2str(block.timestamp)\r\n                ))\r\n            );\r\n\r\n            emit ProductPurchased(productCount, msg.sender, block.timestamp, _quantity);\r\n        }\r\n\r\n        // Update the stock of the original product\r\n        product.stock -= _quantity;\r\n        product.history.push(\"Product purchased\");\r\n\r\n        // Refund excess payment if any\r\n        if (msg.value > product.price * _quantity) {\r\n            payable(msg.sender).transfer(msg.value - product.price * _quantity);\r\n        }\r\n    }\r\n\r\n    // Transfer Product (Only the owner of the product)\r\n    function transferProduct(uint256 _productId, address _newOwner) public {\r\n        Product storage product = products[_productId];\r\n        \r\n        // Ensure the caller is either the admin or the current owner of the product\r\n        require(hasRole(ADMIN_ROLE, msg.sender) || product.owner == msg.sender, \"Caller is neither the admin nor the product owner\");\r\n        \r\n        // Ensure the product is not already delivered\r\n        require(!product.isDelivered, \"Product already delivered\");\r\n        \r\n        // Transfer ownership to the new owner\r\n        product.owner = _newOwner;\r\n        product.transferredAt = block.timestamp;\r\n        product.history.push(\r\n            string(abi.encodePacked(\r\n                \"Transferred to \", \r\n                toString(_newOwner), \r\n                \" at \", \r\n                uint2str(block.timestamp)\r\n            ))\r\n        );\r\n        \r\n        // Emit event for the ownership transfer\r\n        emit ProductTransferred(_productId, _newOwner, block.timestamp);\r\n    }\r\n\r\n    // Mark as Delivered (Only the final customer can mark as delivered)\r\n    function markDelivered(uint256 _productId) public onlyOwner(_productId) {\r\n        Product storage product = products[_productId];\r\n        require(product.finalCustomer == msg.sender, \"Only the final customer can mark as delivered\");\r\n\r\n        product.isDelivered = true;\r\n        product.deliveredAt = block.timestamp;\r\n        product.status = \"Delivered\";\r\n        product.history.push(\r\n            string(abi.encodePacked(\r\n                \"Delivered to customer \", \r\n                toString(msg.sender), \r\n                \" at \", \r\n                uint2str(block.timestamp)\r\n            ))\r\n        );\r\n\r\n        emit ProductDelivered(_productId, block.timestamp);\r\n    }\r\n\r\n    // Update Location (Only the owner of the product)\r\n    function updateLocation(uint256 _productId, string memory _newLocation) public onlyOwner(_productId) {\r\n        Product storage product = products[_productId];\r\n        product.location = _newLocation;\r\n        product.history.push(\r\n            string(abi.encodePacked(\r\n                \"Location updated to \", \r\n                _newLocation, \r\n                \" at \", \r\n                uint2str(block.timestamp)\r\n            ))\r\n        );\r\n\r\n        emit LocationUpdated(_productId, _newLocation, block.timestamp);\r\n    }\r\n\r\n    // Update Status (Admin or owner only)\r\n    function updateStatus(uint256 _productId, string memory _newStatus) public {\r\n        require(\r\n            hasRole(ADMIN_ROLE, msg.sender) || products[_productId].owner == msg.sender,\r\n            \"Unauthorized to update status\"\r\n        );\r\n        Product storage product = products[_productId];\r\n        product.status = _newStatus;\r\n        product.history.push(\r\n            string(abi.encodePacked(\r\n                \"Status updated to \", \r\n                _newStatus, \r\n                \" at \", \r\n                uint2str(block.timestamp)\r\n            ))\r\n        );\r\n\r\n        emit StatusUpdated(_productId, _newStatus, block.timestamp);\r\n    }\r\n\r\n    // Update Product Price (Admin only)\r\n    function updateProductPrice(uint256 _productId, uint256 _newPrice) public onlyAdmin {\r\n        Product storage product = products[_productId];\r\n        require(_newPrice > 0, \"Price must be greater than zero\");\r\n        product.price = _newPrice;\r\n        product.history.push(\"Price updated\");\r\n        emit ProductPriceUpdated(_productId, _newPrice, block.timestamp);\r\n    }\r\n\r\n    // Update Product Stock (Admin only)\r\n    function updateProductStock(uint256 _productId, uint256 _newStock) public onlyAdmin {\r\n        Product storage product = products[_productId];\r\n        require(_newStock >= 0, \"Stock must be greater than or equal to zero\");\r\n        product.stock = _newStock;\r\n        product.history.push(\"Stock updated\");\r\n        emit ProductStockUpdated(_productId, _newStock, block.timestamp);\r\n    }\r\n\r\n    // Remove Product (Admin only)\r\n    function removeProduct(uint256 _productId) public onlyAdmin {\r\n        delete products[_productId];\r\n        emit ProductRemoved(_productId, block.timestamp);\r\n    }\r\n\r\n    // View Product History (Customer or Admin can view)\r\n    function getHistory(uint256 _productId) public view returns (string[] memory) {\r\n        Product storage product = products[_productId];\r\n        uint256 historyLength = product.history.length;\r\n        string[] memory detailedHistory = new string[](historyLength);\r\n\r\n        for (uint256 i = 0; i < historyLength; i++) {\r\n            // Combine event description with timestamp\r\n            detailedHistory[i] = string(\r\n                abi.encodePacked(\r\n                    product.history[i],\r\n                    \" (Timestamp: \",\r\n                    uint2str(product.createdAt + i), // Adjust timestamp dynamically\r\n                    \")\"\r\n                )\r\n            );\r\n        }\r\n        return detailedHistory;\r\n    }\r\n\r\n    // Helper function to convert uint to string\r\n    function uint2str(uint256 _i) internal pure returns (string memory) {\r\n        if (_i == 0) {\r\n            return \"0\";\r\n        }\r\n        uint256 j = _i;\r\n        uint256 len;\r\n        while (j != 0) {\r\n            len++;\r\n            j /= 10;\r\n        }\r\n        bytes memory bstr = new bytes(len);\r\n        uint256 k = len;\r\n        while (_i != 0) {\r\n            k = k - 1;\r\n            uint8 temp = (48 + uint8(_i - (_i / 10) * 10));\r\n            bytes1 b1 = bytes1(temp);\r\n            bstr[k] = b1;\r\n            _i /= 10;\r\n        }\r\n        return string(bstr);\r\n    }\r\n\r\n    function toString(address _addr) internal pure returns (string memory) {\r\n    return string(abi.encodePacked(\"0x\", uint2str(uint256(uint160(_addr)))));\r\n    }\r\n\r\n    // View Product Details (Public function)\r\n    function getProductBasicDetails(uint256 _productId) public view returns (\r\n    uint256 id,\r\n    string memory name,\r\n    uint256 price,\r\n    uint256 stock,\r\n    address owner,\r\n    string memory location,\r\n    string memory status\r\n) {\r\n    Product memory product = products[_productId];\r\n    return (\r\n        product.id,\r\n        product.name,\r\n        product.price,\r\n        product.stock,\r\n        product.owner,\r\n        product.location,\r\n        product.status\r\n    );\r\n}\r\n\r\n// View Product Delivery Details (Public function)\r\nfunction getProductDeliveryDetails(uint256 _productId) public view returns (\r\n    uint256 transferredAt,\r\n    uint256 deliveredAt,\r\n    bool isDelivered,\r\n    address finalCustomer\r\n) {\r\n    Product memory product = products[_productId];\r\n    return (\r\n        product.transferredAt,\r\n        product.deliveredAt,\r\n        product.isDelivered,\r\n        product.finalCustomer\r\n    );\r\n}\r\n\r\n    // Fallback function to accept Ether\r\n    receive() external payable {}\r\n}\r\n",
  "sourcePath": "C:/Users/HP/OneDrive/Desktop/Blockchain Enabled E-Commerce Supply Chain Management System/supply-chain-smart-contract/contracts/SupplyChain.sol",
  "compiler": {
    "name": "solc",
    "version": "0.8.0+commit.c7dfd78e.Emscripten.clang"
  },
  "schemaVersion": "3.4.1",
  "updatedAt": "2024-12-04T18:07:11.354Z",
  "networkType": "ethereum",
  "devdoc": {
    "kind": "dev",
    "methods": {
      "getRoleAdmin(bytes32)": {
        "details": "Returns the admin role that controls `role`. See {grantRole} and {revokeRole}. To change a role's admin, use {_setRoleAdmin}."
      },
      "grantRole(bytes32,address)": {
        "details": "Grants `role` to `account`. If `account` had not been already granted `role`, emits a {RoleGranted} event. Requirements: - the caller must have ``role``'s admin role. May emit a {RoleGranted} event."
      },
      "hasRole(bytes32,address)": {
        "details": "Returns `true` if `account` has been granted `role`."
      },
      "renounceRole(bytes32,address)": {
        "details": "Revokes `role` from the calling account. Roles are often managed via {grantRole} and {revokeRole}: this function's purpose is to provide a mechanism for accounts to lose their privileges if they are compromised (such as when a trusted device is misplaced). If the calling account had been revoked `role`, emits a {RoleRevoked} event. Requirements: - the caller must be `account`. May emit a {RoleRevoked} event."
      },
      "revokeRole(bytes32,address)": {
        "details": "Revokes `role` from `account`. If `account` had been granted `role`, emits a {RoleRevoked} event. Requirements: - the caller must have ``role``'s admin role. May emit a {RoleRevoked} event."
      },
      "supportsInterface(bytes4)": {
        "details": "See {IERC165-supportsInterface}."
      }
    },
    "version": 1
  },
  "userdoc": {
    "kind": "user",
    "methods": {},
    "version": 1
  }
}